{
  "address": "0x79d00fe5A00b8b9e1587Ba6432921f05DECCB4fd",
  "abi": [
    {
      "inputs": [],
      "stateMutability": "nonpayable",
      "type": "constructor"
    },
    {
      "inputs": [],
      "name": "NotContractOwner",
      "type": "error"
    },
    {
      "anonymous": false,
      "inputs": [
        {
          "indexed": true,
          "internalType": "address",
          "name": "creator",
          "type": "address"
        },
        {
          "indexed": true,
          "internalType": "address",
          "name": "contractAddress",
          "type": "address"
        },
        {
          "indexed": true,
          "internalType": "address",
          "name": "token",
          "type": "address"
        },
        {
          "indexed": false,
          "internalType": "uint256",
          "name": "trailAmount",
          "type": "uint256"
        },
        {
          "indexed": false,
          "internalType": "uint256",
          "name": "timestamp",
          "type": "uint256"
        }
      ],
      "name": "ContractDeployed",
      "type": "event"
    },
    {
      "anonymous": false,
      "inputs": [
        {
          "indexed": true,
          "internalType": "address",
          "name": "creator",
          "type": "address"
        },
        {
          "indexed": true,
          "internalType": "address",
          "name": "strategy",
          "type": "address"
        },
        {
          "indexed": false,
          "internalType": "uint256",
          "name": "depositPrice",
          "type": "uint256"
        },
        {
          "indexed": false,
          "internalType": "uint256",
          "name": "amount",
          "type": "uint256"
        },
        {
          "indexed": false,
          "internalType": "address",
          "name": "token",
          "type": "address"
        },
        {
          "indexed": false,
          "internalType": "uint256",
          "name": "timestamp",
          "type": "uint256"
        },
        {
          "indexed": false,
          "internalType": "uint256",
          "name": "trailAmount",
          "type": "uint256"
        }
      ],
      "name": "FundsDeposited",
      "type": "event"
    },
    {
      "anonymous": false,
      "inputs": [
        {
          "indexed": true,
          "internalType": "address",
          "name": "creator",
          "type": "address"
        },
        {
          "indexed": true,
          "internalType": "address",
          "name": "strategy",
          "type": "address"
        },
        {
          "indexed": false,
          "internalType": "uint256",
          "name": "amount",
          "type": "uint256"
        },
        {
          "indexed": false,
          "internalType": "address",
          "name": "token",
          "type": "address"
        },
        {
          "indexed": false,
          "internalType": "uint256",
          "name": "timestamp",
          "type": "uint256"
        }
      ],
      "name": "FundsWithdrawn",
      "type": "event"
    },
    {
      "anonymous": false,
      "inputs": [
        {
          "indexed": true,
          "internalType": "address",
          "name": "strategy",
          "type": "address"
        },
        {
          "indexed": true,
          "internalType": "address",
          "name": "creator",
          "type": "address"
        },
        {
          "indexed": false,
          "internalType": "uint256",
          "name": "amountIn",
          "type": "uint256"
        },
        {
          "indexed": false,
          "internalType": "uint256",
          "name": "amountOut",
          "type": "uint256"
        },
        {
          "indexed": false,
          "internalType": "address",
          "name": "tokenIn",
          "type": "address"
        },
        {
          "indexed": false,
          "internalType": "address",
          "name": "tokenOut",
          "type": "address"
        },
        {
          "indexed": false,
          "internalType": "uint256",
          "name": "timestamp",
          "type": "uint256"
        }
      ],
      "name": "SwapExecuted",
      "type": "event"
    },
    {
      "anonymous": false,
      "inputs": [
        {
          "indexed": true,
          "internalType": "address",
          "name": "strategy",
          "type": "address"
        },
        {
          "indexed": false,
          "internalType": "uint256",
          "name": "oldThreshold",
          "type": "uint256"
        },
        {
          "indexed": false,
          "internalType": "uint256",
          "name": "newThreshold",
          "type": "uint256"
        },
        {
          "indexed": false,
          "internalType": "uint256",
          "name": "timestamp",
          "type": "uint256"
        }
      ],
      "name": "ThresholdUpdated",
      "type": "event"
    },
    {
      "inputs": [
        {
          "internalType": "uint256",
          "name": "",
          "type": "uint256"
        }
      ],
      "name": "activeStrategies",
      "outputs": [
        {
          "internalType": "address",
          "name": "",
          "type": "address"
        }
      ],
      "stateMutability": "view",
      "type": "function"
    },
    {
      "inputs": [],
      "name": "checker",
      "outputs": [
        {
          "internalType": "bool",
          "name": "canExec",
          "type": "bool"
        },
        {
          "internalType": "bytes",
          "name": "execPayload",
          "type": "bytes"
        }
      ],
      "stateMutability": "view",
      "type": "function"
    },
    {
      "inputs": [
        {
          "internalType": "address",
          "name": "_erc20Token",
          "type": "address"
        },
        {
          "internalType": "address",
          "name": "_stablecoin",
          "type": "address"
        },
        {
          "internalType": "address",
          "name": "_uniswapRouter",
          "type": "address"
        },
        {
          "internalType": "address",
          "name": "_uniswapPool",
          "type": "address"
        },
        {
          "internalType": "address",
          "name": "_uniswapOracle",
          "type": "address"
        },
        {
          "internalType": "uint256",
          "name": "_trailAmount",
          "type": "uint256"
        },
        {
          "internalType": "uint256",
          "name": "_granularity",
          "type": "uint256"
        },
        {
          "internalType": "uint24",
          "name": "_poolFee",
          "type": "uint24"
        }
      ],
      "name": "deployTrailMix",
      "outputs": [],
      "stateMutability": "nonpayable",
      "type": "function"
    },
    {
      "inputs": [
        {
          "internalType": "address",
          "name": "_strategy",
          "type": "address"
        },
        {
          "internalType": "uint256",
          "name": "_amount",
          "type": "uint256"
        },
        {
          "internalType": "uint256",
          "name": "_tslThreshold",
          "type": "uint256"
        }
      ],
      "name": "deposit",
      "outputs": [],
      "stateMutability": "nonpayable",
      "type": "function"
    },
    {
      "inputs": [
        {
          "internalType": "address",
          "name": "user",
          "type": "address"
        }
      ],
      "name": "getUserContracts",
      "outputs": [
        {
          "internalType": "address[]",
          "name": "",
          "type": "address[]"
        }
      ],
      "stateMutability": "view",
      "type": "function"
    },
    {
      "inputs": [
        {
          "internalType": "address",
          "name": "",
          "type": "address"
        }
      ],
      "name": "isActiveStrategy",
      "outputs": [
        {
          "internalType": "bool",
          "name": "",
          "type": "bool"
        }
      ],
      "stateMutability": "view",
      "type": "function"
    },
    {
      "inputs": [
        {
          "internalType": "address",
          "name": "strategy",
          "type": "address"
        },
        {
          "internalType": "bool",
          "name": "sell",
          "type": "bool"
        },
        {
          "internalType": "bool",
          "name": "updateThreshold",
          "type": "bool"
        },
        {
          "internalType": "uint256",
          "name": "newThreshold",
          "type": "uint256"
        }
      ],
      "name": "performUpkeep",
      "outputs": [],
      "stateMutability": "nonpayable",
      "type": "function"
    },
    {
      "inputs": [
        {
          "internalType": "address",
          "name": "_executor",
          "type": "address"
        }
      ],
      "name": "setGelatoExecutor",
      "outputs": [],
      "stateMutability": "nonpayable",
      "type": "function"
    },
    {
      "inputs": [
        {
          "internalType": "address",
          "name": "_strategy",
          "type": "address"
        }
      ],
      "name": "toggleSlippageProtection",
      "outputs": [],
      "stateMutability": "nonpayable",
      "type": "function"
    },
    {
      "inputs": [
        {
          "internalType": "address",
          "name": "",
          "type": "address"
        },
        {
          "internalType": "uint256",
          "name": "",
          "type": "uint256"
        }
      ],
      "name": "userContracts",
      "outputs": [
        {
          "internalType": "address",
          "name": "",
          "type": "address"
        }
      ],
      "stateMutability": "view",
      "type": "function"
    },
    {
      "inputs": [
        {
          "internalType": "address",
          "name": "_strategy",
          "type": "address"
        },
        {
          "internalType": "address",
          "name": "_token",
          "type": "address"
        }
      ],
      "name": "withdraw",
      "outputs": [],
      "stateMutability": "nonpayable",
      "type": "function"
    }
  ],
  "transactionHash": "0x93805365aff5138d39246bab82140533bcc1bb53bc7e692c03a0fb6f6e471c68",
  "args": [],
  "numDeployments": 4,
  "solcInputHash": "5d11ad1dce79f76016e5506bb2e3da25",
  "bytecode": "0x608060405234801561001057600080fd5b506001600055600680546001600160a01b03191633179055612d0f806100376000396000f3fe60806040523480156200001157600080fd5b5060043610620000b75760003560e01c8063b789003d116200007a578063b789003d1462000162578063cf5303cf1462000179578063d25815031462000193578063f3d746f914620001ca578063f557f1a914620001e1578063f940e38514620001f857600080fd5b80630efe6a8b14620000bc57806334c925f014620000d5578063442717b21462000104578063ab2e2000146200011b578063b20b24291462000132575b600080fd5b620000d3620000cd3660046200158b565b6200020f565b005b620000ec620000e6366004620015c3565b620006ac565b604051620000fb9190620015ea565b60405180910390f35b620000d36200011536600462001639565b62000724565b620000d36200012c366004620016f3565b62000847565b62000149620001433660046200174b565b620008b7565b6040516001600160a01b039091168152602001620000fb565b620001496200017336600462001765565b620008e2565b620001836200091b565b604051620000fb92919062001794565b620001b9620001a4366004620015c3565b60036020526000908152604090205460ff1681565b6040519015158152602001620000fb565b620000d3620001db366004620015c3565b62000b5a565b620000d3620001f2366004620015c3565b62000c49565b620000d362000209366004620017ee565b62000cb8565b336001600160a01b0316836001600160a01b0316630ee2cb106040518163ffffffff1660e01b8152600401602060405180830381865afa15801562000258573d6000803e3d6000fd5b505050506040513d601f19601f820116820180604052508101906200027e91906200182c565b6001600160a01b031614620002a65760405163bfcafd3760e01b815260040160405180910390fd5b6000836001600160a01b031663624aa0fd6040518163ffffffff1660e01b8152600401602060405180830381865afa158015620002e7573d6000803e3d6000fd5b505050506040513d601f19601f820116820180604052508101906200030d91906200182c565b6040516323b872dd60e01b8152336004820152306024820152604481018590529091506001600160a01b038216906323b872dd906064016020604051808303816000875af115801562000364573d6000803e3d6000fd5b505050506040513d601f19601f820116820180604052508101906200038a91906200184c565b5060405163095ea7b360e01b81526001600160a01b0385811660048301526024820185905282169063095ea7b3906044016020604051808303816000875af1158015620003db573d6000803e3d6000fd5b505050506040513d601f19601f820116820180604052508101906200040191906200184c565b50604051631c57762b60e31b815260048101849052602481018390526001600160a01b0385169063e2bbb15890604401600060405180830381600087803b1580156200044c57600080fd5b505af115801562000461573d6000803e3d6000fd5b505050506001600160a01b03841660009081526003602052604090205460ff166200050d576001805480820182557fb10e2d527612073b26eecdfd717e6a320cf44b4afac2b0732d9fcbe2b7fa0cf60180546001600160a01b0319166001600160a01b0387169081179091556000908152600360205260409020805460ff1916821790558054620004f3919062001882565b6001600160a01b0385166000908152600260205260409020555b836001600160a01b0316336001600160a01b03167f54578f45afaf673149e624fe60db713945facd7062fb5d9886b8afbf09ee8133866001600160a01b0316639a31c0096040518163ffffffff1660e01b8152600401602060405180830381865afa15801562000581573d6000803e3d6000fd5b505050506040513d601f19601f82011682018060405250810190620005a791906200189e565b86886001600160a01b031663624aa0fd6040518163ffffffff1660e01b8152600401602060405180830381865afa158015620005e7573d6000803e3d6000fd5b505050506040513d601f19601f820116820180604052508101906200060d91906200182c565b428a6001600160a01b031663c612a8086040518163ffffffff1660e01b8152600401602060405180830381865afa1580156200064d573d6000803e3d6000fd5b505050506040513d601f19601f820116820180604052508101906200067391906200189e565b6040805195865260208601949094526001600160a01b03929092168484015260608401526080830152519081900360a00190a350505050565b6001600160a01b0381166000908152600460209081526040918290208054835181840281018401909452808452606093928301828280156200071857602002820191906000526020600020905b81546001600160a01b03168152600190910190602001808311620006f9575b50505050509050919050565b600030338a8a8a8a8a8a8a8a6040516200073e9062001564565b6001600160a01b039a8b168152988a1660208a015296891660408901529488166060880152928716608087015290861660a086015290941660c084015260e083019390935261010082019290925262ffffff90911661012082015261014001604051809103906000f080158015620007ba573d6000803e3d6000fd5b5033600081815260046020908152604080832080546001810182559084529282902090920180546001600160a01b0319166001600160a01b0386811691821790925583518a815242938101939093529495508d169392917f27f210c3cfa1b3c49e3da52fd1c2be0f3ffd46ffa289b41a57477c87e54099c3910160405180910390a4505050505050505050565b333014806200086057506005546001600160a01b031633145b620008a35760405162461bcd60e51b815260206004820152600e60248201526d139bdd08185d5d1a1bdc9a5e995960921b60448201526064015b60405180910390fd5b620008b18484848462000f97565b50505050565b60018181548110620008c857600080fd5b6000918252602090912001546001600160a01b0316905081565b60046020528160005260406000208181548110620008ff57600080fd5b6000918252602090912001546001600160a01b03169150829050565b600060606000606060005b60015481101562000b2b576000806000600184815481106200094c576200094c620018b8565b9060005260206000200160009054906101000a90046001600160a01b03166001600160a01b031663f0b946846040518163ffffffff1660e01b8152600401606060405180830381865afa158015620009a8573d6000803e3d6000fd5b505050506040513d601f19601f82011682018060405250810190620009ce9190620018ce565b925092509250821562000a7557600163ab2e200060e01b60018681548110620009fb57620009fb620018b8565b6000918252602090912001546040516001600160a01b039091166024820152851515604482015284151560648201526084810184905260a40160408051601f198184030181529190526020810180516001600160e01b03166001600160e01b03199093169290921790915290999098509650505050505050565b811562000b12578562000b12576001955063ab2e200060e01b6001858154811062000aa45762000aa4620018b8565b6000918252602090912001546040516001600160a01b039091166024820152841515604482015283151560648201526084810183905260a40160408051601f198184030181529190526020810180516001600160e01b03166001600160e01b03199093169290921790915294505b505050808062000b229062001916565b91505062000926565b50811562000b3e57600194909350915050565b6000604051806020016040528060008152509350935050509091565b336001600160a01b0316816001600160a01b0316630ee2cb106040518163ffffffff1660e01b8152600401602060405180830381865afa15801562000ba3573d6000803e3d6000fd5b505050506040513d601f19601f8201168201806040525081019062000bc991906200182c565b6001600160a01b03161462000bf15760405163bfcafd3760e01b815260040160405180910390fd5b806001600160a01b031663def74f916040518163ffffffff1660e01b8152600401600060405180830381600087803b15801562000c2d57600080fd5b505af115801562000c42573d6000803e3d6000fd5b5050505050565b6006546001600160a01b0316331462000c965760405162461bcd60e51b815260206004820152600e60248201526d139bdd08185d5d1a1bdc9a5e995960921b60448201526064016200089a565b600580546001600160a01b0319166001600160a01b0392909216919091179055565b62000cc2620013ac565b336001600160a01b0316826001600160a01b0316630ee2cb106040518163ffffffff1660e01b8152600401602060405180830381865afa15801562000d0b573d6000803e3d6000fd5b505050506040513d601f19601f8201168201806040525081019062000d3191906200182c565b6001600160a01b03161462000d595760405163bfcafd3760e01b815260040160405180910390fd5b6000826001600160a01b031663624aa0fd6040518163ffffffff1660e01b8152600401602060405180830381865afa15801562000d9a573d6000803e3d6000fd5b505050506040513d601f19601f8201168201806040525081019062000dc091906200182c565b6001600160a01b0316826001600160a01b03160362000e4657826001600160a01b031663c3736fe66040518163ffffffff1660e01b8152600401602060405180830381865afa15801562000e18573d6000803e3d6000fd5b505050506040513d601f19601f8201168201806040525081019062000e3e91906200189e565b905062000eae565b826001600160a01b03166368e6ea756040518163ffffffff1660e01b8152600401602060405180830381865afa15801562000e85573d6000803e3d6000fd5b505050506040513d601f19601f8201168201806040525081019062000eab91906200189e565b90505b6040516351cff8d960e01b81526001600160a01b0383811660048301528416906351cff8d990602401600060405180830381600087803b15801562000ef257600080fd5b505af115801562000f07573d6000803e3d6000fd5b505050506001600160a01b03831660009081526003602052604090205460ff161562000f385762000f388362001407565b604080518281526001600160a01b038481166020830152428284015291519185169133917f8a95554e4c9dcaaf33f247387f2ee77390780487d3365e3a804788791a1df500919081900360600190a35062000f936001600055565b5050565b821562001295576000846001600160a01b031663c3736fe66040518163ffffffff1660e01b8152600401602060405180830381865afa15801562000fdf573d6000803e3d6000fd5b505050506040513d601f19601f820116820180604052508101906200100591906200189e565b6040516353e6ce7760e11b8152600481018290529091506001600160a01b0386169063a7cd9cee90602401600060405180830381600087803b1580156200104b57600080fd5b505af115801562001060573d6000803e3d6000fd5b505050506001600160a01b03851660009081526003602052604090205460ff16156200109157620010918562001407565b846001600160a01b0316630ee2cb106040518163ffffffff1660e01b8152600401602060405180830381865afa158015620010d0573d6000803e3d6000fd5b505050506040513d601f19601f82011682018060405250810190620010f691906200182c565b6001600160a01b0316856001600160a01b03167ffe45b5432fda489a54f62aee430bcf72a5639b3174a0528dc94572338079642683886001600160a01b03166368e6ea756040518163ffffffff1660e01b8152600401602060405180830381865afa1580156200116a573d6000803e3d6000fd5b505050506040513d601f19601f820116820180604052508101906200119091906200189e565b896001600160a01b031663624aa0fd6040518163ffffffff1660e01b8152600401602060405180830381865afa158015620011cf573d6000803e3d6000fd5b505050506040513d601f19601f82011682018060405250810190620011f591906200182c565b8a6001600160a01b0316637bef4f546040518163ffffffff1660e01b8152600401602060405180830381865afa15801562001234573d6000803e3d6000fd5b505050506040513d601f19601f820116820180604052508101906200125a91906200182c565b6040805194855260208501939093526001600160a01b0391821684840152166060830152426080830152519081900360a00190a350620008b1565b8115620008b157604051632539276f60e21b8152600481018290526001600160a01b038516906394e49dbc90602401600060405180830381600087803b158015620012df57600080fd5b505af1158015620012f4573d6000803e3d6000fd5b50505050836001600160a01b03167f0bd3cc1c5d7fe612c55d1f11d85563be2fbfe6b40cb0d0361e60b07b996fbeda856001600160a01b031663f9a19e546040518163ffffffff1660e01b8152600401602060405180830381865afa15801562001362573d6000803e3d6000fd5b505050506040513d601f19601f820116820180604052508101906200138891906200189e565b6040805191825260208201859052429082015260600160405180910390a250505050565b600260005403620014005760405162461bcd60e51b815260206004820152601f60248201527f5265656e7472616e637947756172643a207265656e7472616e742063616c6c0060448201526064016200089a565b6002600055565b6001600160a01b038116620014515760405162461bcd60e51b815260206004820152600f60248201526e496e76616c6964206164647265737360881b60448201526064016200089a565b6001600160a01b0381166000908152600360209081526040808320805460ff191690556002909152812054600180549192916200149090829062001882565b81548110620014a357620014a3620018b8565b600091825260209091200154600180546001600160a01b039092169250829184908110620014d557620014d5620018b8565b600091825260208083209190910180546001600160a01b0319166001600160a01b039485161790559183168152600290915260409020829055600180548062001522576200152262001932565b60008281526020808220830160001990810180546001600160a01b03191690559092019092556001600160a01b03949094168152600290935250506040812055565b611391806200194983390190565b6001600160a01b03811681146200158857600080fd5b50565b600080600060608486031215620015a157600080fd5b8335620015ae8162001572565b95602085013595506040909401359392505050565b600060208284031215620015d657600080fd5b8135620015e38162001572565b9392505050565b6020808252825182820181905260009190848201906040850190845b818110156200162d5783516001600160a01b03168352928401929184019160010162001606565b50909695505050505050565b600080600080600080600080610100898b0312156200165757600080fd5b8835620016648162001572565b97506020890135620016768162001572565b96506040890135620016888162001572565b955060608901356200169a8162001572565b94506080890135620016ac8162001572565b935060a0890135925060c0890135915060e089013562ffffff81168114620016d357600080fd5b809150509295985092959890939650565b80151581146200158857600080fd5b600080600080608085870312156200170a57600080fd5b8435620017178162001572565b935060208501356200172981620016e4565b925060408501356200173b81620016e4565b9396929550929360600135925050565b6000602082840312156200175e57600080fd5b5035919050565b600080604083850312156200177957600080fd5b8235620017868162001572565b946020939093013593505050565b821515815260006020604081840152835180604085015260005b81811015620017cc57858101830151858201606001528201620017ae565b506000606082860101526060601f19601f830116850101925050509392505050565b600080604083850312156200180257600080fd5b82356200180f8162001572565b91506020830135620018218162001572565b809150509250929050565b6000602082840312156200183f57600080fd5b8151620015e38162001572565b6000602082840312156200185f57600080fd5b8151620015e381620016e4565b634e487b7160e01b600052601160045260246000fd5b818103818111156200189857620018986200186c565b92915050565b600060208284031215620018b157600080fd5b5051919050565b634e487b7160e01b600052603260045260246000fd5b600080600060608486031215620018e457600080fd5b8351620018f181620016e4565b60208501519093506200190481620016e4565b80925050604084015190509250925092565b6000600182016200192b576200192b6200186c565b5060010190565b634e487b7160e01b600052603160045260246000fdfe6101006040523480156200001257600080fd5b5060405162001391380380620013918339810160408190526200003591620000f7565b600160008181556001600160a01b038c81166080528b811660a05282546001600160a01b03199081168c83161784556002805482168c84161790556003805482168b841617905560048054909116888316179055871660c05260e085905260098054600886905563ffffffff191661010062ffffff8616021790921780835590919060ff60201b191664010000000083021790555050505050505050505050620001bf565b80516001600160a01b0381168114620000f257600080fd5b919050565b6000806000806000806000806000806101408b8d0312156200011857600080fd5b620001238b620000da565b99506200013360208c01620000da565b98506200014360408c01620000da565b97506200015360608c01620000da565b96506200016360808c01620000da565b95506200017360a08c01620000da565b94506200018360c08c01620000da565b935060e08b015192506101008b015191506101208b015162ffffff81168114620001ac57600080fd5b809150509295989b9194979a5092959850565b60805160a05160c05160e05161113d620002546000396000818161026601528181610b7b01528181610c960152610d3a0152600081816101950152818161021d015281816106460152610c0201526000818161013e015281816104fc015261058901526000818161029d01528181610464015281816105d201528181610958015281816109b40152610a93015261113d6000f3fe608060405234801561001057600080fd5b50600436106101375760003560e01c80639a31c009116100b8578063d50095841161007c578063d50095841461029b578063def74f91146102c1578063e2bbb158146102c9578063eee2bfa0146102dc578063f0b94684146102e4578063f9a19e541461030957600080fd5b80639a31c00914610241578063a7cd9cee14610249578063c3736fe61461025c578063c612a80814610264578063d39ac0cb1461028a57600080fd5b8063624aa0fd116100ff578063624aa0fd146101de57806368e6ea75146101ef5780637bef4f54146101f757806394e49dbc14610208578063983733f01461021b57600080fd5b80630ee2cb101461013c5780631865c57d1461017b5780631966b608146101905780634096c91c146101b757806351cff8d9146101c9575b600080fd5b7f00000000000000000000000000000000000000000000000000000000000000005b6040516001600160a01b0390911681526020015b60405180910390f35b610183610311565b6040516101729190610f06565b61015e7f000000000000000000000000000000000000000000000000000000000000000081565b6008545b604051908152602001610172565b6101dc6101d7366004610f39565b610459565b005b6001546001600160a01b031661015e565b6007546101bb565b6002546001600160a01b031661015e565b6101dc610216366004610f69565b6105c7565b7f000000000000000000000000000000000000000000000000000000000000000061015e565b6101bb610614565b6101dc610257366004610f69565b6106c3565b6006546101bb565b7f00000000000000000000000000000000000000000000000000000000000000006101bb565b6003546001600160a01b031661015e565b7f000000000000000000000000000000000000000000000000000000000000000061015e565b6101dc61094d565b6101dc6102d7366004610f82565b6109a9565b6101bb610bd1565b6102ec610c3a565b604080519315158452911515602084015290820152606001610172565b6005546101bb565b60606000600954600160201b900460ff16600381111561033357610333610fa4565b03610360575060408051808201909152600d81526c155b9a5b9a5d1a585b1a5e9959609a1b602082015290565b6001600954600160201b900460ff16600381111561038057610380610fa4565b036103a6575060408051808201909152600681526541637469766560d01b602082015290565b6002600954600160201b900460ff1660038111156103c6576103c6610fa4565b036103ef5750604080518082019091526009815268436c61696d61626c6560b81b602082015290565b6003600954600160201b900460ff16600381111561040f5761040f610fa4565b036104375750604080518082019091526008815267496e61637469766560c01b602082015290565b506040805180820190915260078152662ab735b737bbb760c91b602082015290565b336001600160a01b037f000000000000000000000000000000000000000000000000000000000000000016146104aa5760405162461bcd60e51b81526004016104a190610fba565b60405180910390fd5b6002546000906001600160a01b039081169083160361053a5750600754806104e55760405163162908e360e11b815260040160405180910390fd5b6000600755600254610521906001600160a01b03167f000000000000000000000000000000000000000000000000000000000000000083610d89565b50506009805464ff000000001916640300000000179055565b6001546001600160a01b03908116908316036105ae5750600654806105725760405163162908e360e11b815260040160405180910390fd5b6000600655600154610521906001600160a01b03167f000000000000000000000000000000000000000000000000000000000000000083610d89565b60405163c1ab6dc160e01b815260040160405180910390fd5b336001600160a01b037f0000000000000000000000000000000000000000000000000000000000000000161461060f5760405162461bcd60e51b81526004016104a190610fba565b600555565b60048054600180546040516317f271b760e31b815260009485946001600160a01b039081169463bf938db89461067c947f0000000000000000000000000000000000000000000000000000000000000000949190931692670de0b6b3a7640000929101610ffb565b602060405180830381865afa158015610699573d6000803e3d6000fd5b505050506040513d601f19601f820116820180604052508101906106bd919061103b565b92915050565b6106cb610e89565b60006106d5610614565b60095490915060009060ff161561071757683635c9adc5dea000006106fa838561106a565b610706906103e361106a565b6107109190611081565b905061071b565b5060005b60015460035460405163095ea7b360e01b81526001600160a01b0391821660048201526024810186905291169063095ea7b3906044016020604051808303816000875af1158015610770573d6000803e3d6000fd5b505050506040513d601f19601f8201168201806040525081019061079491906110a3565b5082600660008282546107a791906110c5565b90915550506040805160e0810182526001546001600160a01b039081168252600254811660208301908152600954610100900462ffffff9081168486019081523060608601908152608086018a815260a08701898152600060c0890190815260035499516304e45aaf60e01b815289518916600482015296518816602488015293519094166044860152905185166064850152516084840152905160a483015251821660c4820152919216906304e45aaf9060e4016020604051808303816000875af115801561087b573d6000803e3d6000fd5b505050506040513d601f19601f8201168201806040525081019061089f919061103b565b506002546040516370a0823160e01b81523060048201526000916001600160a01b0316906370a0823190602401602060405180830381865afa1580156108e9573d6000803e3d6000fd5b505050506040513d601f19601f8201168201806040525081019061090d919061103b565b9050806007600082825461092191906110d8565b90915550506009805464ff000000001916640200000000179055505060016000555061094a9050565b50565b336001600160a01b037f000000000000000000000000000000000000000000000000000000000000000016146109955760405162461bcd60e51b81526004016104a190610fba565b6009805460ff19811660ff90911615179055565b336001600160a01b037f000000000000000000000000000000000000000000000000000000000000000016146109f15760405162461bcd60e51b81526004016104a190610fba565b60008211610a125760405163162908e360e11b815260040160405180910390fd5b6002600954600160201b900460ff166003811115610a3257610a32610fa4565b1480610a5b57506003600954600160201b900460ff166003811115610a5957610a59610fa4565b145b15610a7957604051631b92e95360e31b815260040160405180910390fd5b6001546040516323b872dd60e01b81526001600160a01b037f0000000000000000000000000000000000000000000000000000000000000000811660048301523060248301526044820185905260009216906323b872dd906064016020604051808303816000875af1158015610af3573d6000803e3d6000fd5b505050506040513d601f19601f82011682018060405250810190610b1791906110a3565b905080610b37576040516312171d8360e31b815260040160405180910390fd5b8260066000828254610b4991906110d8565b9091555060009050600954600160201b900460ff166003811115610b6f57610b6f610fa4565b03610bcc576064610ba07f0000000000000000000000000000000000000000000000000000000000000000826110c5565b610baa908461106a565b610bb49190611081565b6005556009805464ff000000001916600160201b1790555b505050565b600480546001546040516317f271b760e31b815260009384936001600160a01b039081169363bf938db89361067c937f00000000000000000000000000000000000000000000000000000000000000009390921691670de0b6b3a76400009161012c9101610ffb565b600080600080610c48610bd1565b90506000610c54610614565b905060008080806064610c6887605a61106a565b610c729190611081565b905060006064610c8388606e61106a565b610c8d9190611081565b90506000610cbc7f000000000000000000000000000000000000000000000000000000000000000060646110c5565b600554610cca90606461106a565b610cd49190611081565b9050600060646008546064610ce991906110d8565b610cf3908461106a565b610cfd9190611081565b9050838810158015610d0f5750828811155b15610d7657600554891015610d275760019650610d76565b80891115610d7657600195506064610d5f7f0000000000000000000000000000000000000000000000000000000000000000826110c5565b610d69908b61106a565b610d739190611081565b94505b50949a9399509197509195505050505050565b604080516001600160a01b038481166024830152604480830185905283518084039091018152606490920183526020820180516001600160e01b031663a9059cbb60e01b1790529151600092839290871691610de591906110eb565b6000604051808303816000865af19150503d8060008114610e22576040519150601f19603f3d011682016040523d82523d6000602084013e610e27565b606091505b5091509150818015610e51575080511580610e51575080806020019051810190610e5191906110a3565b610e825760405162461bcd60e51b815260206004820152600260248201526114d560f21b60448201526064016104a1565b5050505050565b600260005403610edb5760405162461bcd60e51b815260206004820152601f60248201527f5265656e7472616e637947756172643a207265656e7472616e742063616c6c0060448201526064016104a1565b6002600055565b60005b83811015610efd578181015183820152602001610ee5565b50506000910152565b6020815260008251806020840152610f25816040850160208701610ee2565b601f01601f19169190910160400192915050565b600060208284031215610f4b57600080fd5b81356001600160a01b0381168114610f6257600080fd5b9392505050565b600060208284031215610f7b57600080fd5b5035919050565b60008060408385031215610f9557600080fd5b50508035926020909101359150565b634e487b7160e01b600052602160045260246000fd5b60208082526021908201527f6f6e6c792063616c6c61626c65206279206d616e6167657220636f6e747261636040820152601d60fa1b606082015260800190565b6001600160a01b0394851681529290931660208301526fffffffffffffffffffffffffffffffff16604082015263ffffffff909116606082015260800190565b60006020828403121561104d57600080fd5b5051919050565b634e487b7160e01b600052601160045260246000fd5b80820281158282048414176106bd576106bd611054565b60008261109e57634e487b7160e01b600052601260045260246000fd5b500490565b6000602082840312156110b557600080fd5b81518015158114610f6257600080fd5b818103818111156106bd576106bd611054565b808201808211156106bd576106bd611054565b600082516110fd818460208701610ee2565b919091019291505056fea26469706673582212201d5e185e3bff1cc7010f1d03732a8370d8d427fe6bea954292af86a94379139a64736f6c63430008140033a2646970667358221220d6eed9080c6290cd80235791941224ff93ea6c8d673791e3a7e950e8b308b88464736f6c63430008140033",
  "devdoc": {
    "kind": "dev",
    "methods": {
      "checker()": {
        "details": "Part of the Gelato automation",
        "returns": {
          "canExec": "Boolean flag indicating if upkeep is needed.",
          "execPayload": "Encoded data on what action to perform during upkeep."
        }
      },
      "performUpkeep(address,bool,bool,uint256)": {
        "details": "Part of the gelato automation."
      }
    },
    "version": 1
  },
  "userdoc": {
    "kind": "user",
    "methods": {
      "checker()": {
        "notice": "Checks if upkeep is needed based on TSL conditions.COMPUTED OFF-CHAIN"
      },
      "performUpkeep(address,bool,bool,uint256)": {
        "notice": "Performs the upkeep of updating the stop loss threshold or triggering a sell."
      }
    },
    "version": 1
  },
  "storageLayout": {
    "storage": [
      {
        "astId": 10,
        "contract": "contracts/TrailMixManager.sol:TrailMixManager",
        "label": "_status",
        "offset": 0,
        "slot": "0",
        "type": "t_uint256"
      },
      {
        "astId": 1271,
        "contract": "contracts/TrailMixManager.sol:TrailMixManager",
        "label": "activeStrategies",
        "offset": 0,
        "slot": "1",
        "type": "t_array(t_address)dyn_storage"
      },
      {
        "astId": 1275,
        "contract": "contracts/TrailMixManager.sol:TrailMixManager",
        "label": "strategyIndex",
        "offset": 0,
        "slot": "2",
        "type": "t_mapping(t_address,t_uint256)"
      },
      {
        "astId": 1279,
        "contract": "contracts/TrailMixManager.sol:TrailMixManager",
        "label": "isActiveStrategy",
        "offset": 0,
        "slot": "3",
        "type": "t_mapping(t_address,t_bool)"
      },
      {
        "astId": 1284,
        "contract": "contracts/TrailMixManager.sol:TrailMixManager",
        "label": "userContracts",
        "offset": 0,
        "slot": "4",
        "type": "t_mapping(t_address,t_array(t_address)dyn_storage)"
      },
      {
        "astId": 1286,
        "contract": "contracts/TrailMixManager.sol:TrailMixManager",
        "label": "gelatoExecutor",
        "offset": 0,
        "slot": "5",
        "type": "t_address"
      },
      {
        "astId": 1288,
        "contract": "contracts/TrailMixManager.sol:TrailMixManager",
        "label": "managerDeployer",
        "offset": 0,
        "slot": "6",
        "type": "t_address"
      }
    ],
    "types": {
      "t_address": {
        "encoding": "inplace",
        "label": "address",
        "numberOfBytes": "20"
      },
      "t_array(t_address)dyn_storage": {
        "base": "t_address",
        "encoding": "dynamic_array",
        "label": "address[]",
        "numberOfBytes": "32"
      },
      "t_bool": {
        "encoding": "inplace",
        "label": "bool",
        "numberOfBytes": "1"
      },
      "t_mapping(t_address,t_array(t_address)dyn_storage)": {
        "encoding": "mapping",
        "key": "t_address",
        "label": "mapping(address => address[])",
        "numberOfBytes": "32",
        "value": "t_array(t_address)dyn_storage"
      },
      "t_mapping(t_address,t_bool)": {
        "encoding": "mapping",
        "key": "t_address",
        "label": "mapping(address => bool)",
        "numberOfBytes": "32",
        "value": "t_bool"
      },
      "t_mapping(t_address,t_uint256)": {
        "encoding": "mapping",
        "key": "t_address",
        "label": "mapping(address => uint256)",
        "numberOfBytes": "32",
        "value": "t_uint256"
      },
      "t_uint256": {
        "encoding": "inplace",
        "label": "uint256",
        "numberOfBytes": "32"
      }
    }
  }
}