{
  "address": "0xcF572dCCF82dF712D18a6bbFBdCbc54a34BB0a92",
  "abi": [
    {
      "inputs": [],
      "name": "NotContractOwner",
      "type": "error"
    },
    {
      "anonymous": false,
      "inputs": [
        {
          "indexed": true,
          "internalType": "address",
          "name": "creator",
          "type": "address"
        },
        {
          "indexed": false,
          "internalType": "address",
          "name": "contractAddress",
          "type": "address"
        },
        {
          "indexed": false,
          "internalType": "uint256",
          "name": "timestamp",
          "type": "uint256"
        }
      ],
      "name": "ContractDeployed",
      "type": "event"
    },
    {
      "anonymous": false,
      "inputs": [
        {
          "indexed": true,
          "internalType": "address",
          "name": "creator",
          "type": "address"
        },
        {
          "indexed": true,
          "internalType": "address",
          "name": "strategy",
          "type": "address"
        },
        {
          "indexed": false,
          "internalType": "uint256",
          "name": "amount",
          "type": "uint256"
        },
        {
          "indexed": false,
          "internalType": "address",
          "name": "token",
          "type": "address"
        },
        {
          "indexed": false,
          "internalType": "uint256",
          "name": "timestamp",
          "type": "uint256"
        }
      ],
      "name": "FundsDeposited",
      "type": "event"
    },
    {
      "anonymous": false,
      "inputs": [
        {
          "indexed": true,
          "internalType": "address",
          "name": "creator",
          "type": "address"
        },
        {
          "indexed": true,
          "internalType": "address",
          "name": "strategy",
          "type": "address"
        },
        {
          "indexed": false,
          "internalType": "uint256",
          "name": "amount",
          "type": "uint256"
        },
        {
          "indexed": false,
          "internalType": "address",
          "name": "token",
          "type": "address"
        },
        {
          "indexed": false,
          "internalType": "uint256",
          "name": "timestamp",
          "type": "uint256"
        }
      ],
      "name": "FundsWithdrawn",
      "type": "event"
    },
    {
      "anonymous": false,
      "inputs": [
        {
          "indexed": true,
          "internalType": "address",
          "name": "strategy",
          "type": "address"
        },
        {
          "indexed": true,
          "internalType": "address",
          "name": "creator",
          "type": "address"
        },
        {
          "indexed": false,
          "internalType": "uint256",
          "name": "amountIn",
          "type": "uint256"
        },
        {
          "indexed": false,
          "internalType": "uint256",
          "name": "amountOut",
          "type": "uint256"
        },
        {
          "indexed": false,
          "internalType": "address",
          "name": "tokenIn",
          "type": "address"
        },
        {
          "indexed": false,
          "internalType": "address",
          "name": "tokenOut",
          "type": "address"
        },
        {
          "indexed": false,
          "internalType": "uint256",
          "name": "timestamp",
          "type": "uint256"
        }
      ],
      "name": "SwapExecuted",
      "type": "event"
    },
    {
      "anonymous": false,
      "inputs": [
        {
          "indexed": true,
          "internalType": "address",
          "name": "strategy",
          "type": "address"
        },
        {
          "indexed": false,
          "internalType": "uint256",
          "name": "oldThreshold",
          "type": "uint256"
        },
        {
          "indexed": false,
          "internalType": "uint256",
          "name": "newThreshold",
          "type": "uint256"
        },
        {
          "indexed": false,
          "internalType": "uint256",
          "name": "timestamp",
          "type": "uint256"
        }
      ],
      "name": "ThresholdUpdated",
      "type": "event"
    },
    {
      "inputs": [
        {
          "internalType": "uint256",
          "name": "",
          "type": "uint256"
        }
      ],
      "name": "activeStrategies",
      "outputs": [
        {
          "internalType": "address",
          "name": "",
          "type": "address"
        }
      ],
      "stateMutability": "view",
      "type": "function"
    },
    {
      "inputs": [
        {
          "internalType": "bytes",
          "name": "",
          "type": "bytes"
        }
      ],
      "name": "checkUpkeep",
      "outputs": [
        {
          "internalType": "bool",
          "name": "upkeepNeeded",
          "type": "bool"
        },
        {
          "internalType": "bytes",
          "name": "performData",
          "type": "bytes"
        }
      ],
      "stateMutability": "view",
      "type": "function"
    },
    {
      "inputs": [
        {
          "internalType": "address",
          "name": "_erc20Token",
          "type": "address"
        },
        {
          "internalType": "address",
          "name": "_stablecoin",
          "type": "address"
        },
        {
          "internalType": "address",
          "name": "_uniswapRouter",
          "type": "address"
        },
        {
          "internalType": "address",
          "name": "_uniswapPool",
          "type": "address"
        },
        {
          "internalType": "address",
          "name": "_uniswapOracle",
          "type": "address"
        },
        {
          "internalType": "uint256",
          "name": "_trailAmount",
          "type": "uint256"
        },
        {
          "internalType": "uint256",
          "name": "_granularity",
          "type": "uint256"
        },
        {
          "internalType": "uint24",
          "name": "_poolFee",
          "type": "uint24"
        }
      ],
      "name": "deployTrailMix",
      "outputs": [],
      "stateMutability": "nonpayable",
      "type": "function"
    },
    {
      "inputs": [
        {
          "internalType": "address",
          "name": "_strategy",
          "type": "address"
        },
        {
          "internalType": "uint256",
          "name": "_amount",
          "type": "uint256"
        },
        {
          "internalType": "uint256",
          "name": "_tslThreshold",
          "type": "uint256"
        }
      ],
      "name": "deposit",
      "outputs": [],
      "stateMutability": "nonpayable",
      "type": "function"
    },
    {
      "inputs": [
        {
          "internalType": "address",
          "name": "user",
          "type": "address"
        }
      ],
      "name": "getUserContracts",
      "outputs": [
        {
          "internalType": "address[]",
          "name": "",
          "type": "address[]"
        }
      ],
      "stateMutability": "view",
      "type": "function"
    },
    {
      "inputs": [
        {
          "internalType": "address",
          "name": "",
          "type": "address"
        }
      ],
      "name": "isActiveStrategy",
      "outputs": [
        {
          "internalType": "bool",
          "name": "",
          "type": "bool"
        }
      ],
      "stateMutability": "view",
      "type": "function"
    },
    {
      "inputs": [
        {
          "internalType": "bytes",
          "name": "performData",
          "type": "bytes"
        }
      ],
      "name": "performUpkeep",
      "outputs": [],
      "stateMutability": "nonpayable",
      "type": "function"
    },
    {
      "inputs": [
        {
          "internalType": "address",
          "name": "",
          "type": "address"
        },
        {
          "internalType": "uint256",
          "name": "",
          "type": "uint256"
        }
      ],
      "name": "userContracts",
      "outputs": [
        {
          "internalType": "address",
          "name": "",
          "type": "address"
        }
      ],
      "stateMutability": "view",
      "type": "function"
    },
    {
      "inputs": [
        {
          "internalType": "address",
          "name": "_strategy",
          "type": "address"
        }
      ],
      "name": "withdraw",
      "outputs": [],
      "stateMutability": "nonpayable",
      "type": "function"
    }
  ],
  "transactionHash": "0x61ed6f657d80002933d70e7e68a7779f014b3c38b95f81afdfd4cee2342ed850",
  "args": [],
  "numDeployments": 3,
  "solcInputHash": "0ff3192b189d79939bb17a438ae0272b",
  "bytecode": "0x608060405234801561001057600080fd5b5060016000556125be806100256000396000f3fe60806040523480156200001157600080fd5b50600436106200009f5760003560e01c806351cff8d9116200006e57806351cff8d9146200011a5780636e04ff0d1462000131578063b20b24291462000158578063b789003d1462000188578063d2581503146200019f57600080fd5b80630efe6a8b14620000a457806334c925f014620000bd578063442717b214620000ec5780634585e33b1462000103575b600080fd5b620000bb620000b536600462001084565b620001d6565b005b620000d4620000ce366004620010bc565b620004f4565b604051620000e39190620010e3565b60405180910390f35b620000bb620000fd36600462001132565b6200056c565b620000bb62000114366004620011dd565b620006fd565b620000bb6200012b366004620010bc565b62000b0e565b6200014862000142366004620011dd565b62000c1d565b604051620000e392919062001254565b6200016f62000169366004620012ae565b62000de0565b6040516001600160a01b039091168152602001620000e3565b6200016f62000199366004620012c8565b62000e0b565b620001c5620001b0366004620010bc565b60036020526000908152604090205460ff1681565b6040519015158152602001620000e3565b336001600160a01b0316836001600160a01b0316630ee2cb106040518163ffffffff1660e01b8152600401602060405180830381865afa1580156200021f573d6000803e3d6000fd5b505050506040513d601f19601f82011682018060405250810190620002459190620012f7565b6001600160a01b0316146200026d5760405163bfcafd3760e01b815260040160405180910390fd5b6000836001600160a01b031663624aa0fd6040518163ffffffff1660e01b8152600401602060405180830381865afa158015620002ae573d6000803e3d6000fd5b505050506040513d601f19601f82011682018060405250810190620002d49190620012f7565b6040516323b872dd60e01b8152336004820152306024820152604481018590529091506001600160a01b038216906323b872dd906064016020604051808303816000875af11580156200032b573d6000803e3d6000fd5b505050506040513d601f19601f8201168201806040525081019062000351919062001326565b5060405163095ea7b360e01b81526001600160a01b0385811660048301526024820185905282169063095ea7b3906044016020604051808303816000875af1158015620003a2573d6000803e3d6000fd5b505050506040513d601f19601f82011682018060405250810190620003c8919062001326565b50604051631c57762b60e31b815260048101849052602481018390526001600160a01b0385169063e2bbb15890604401600060405180830381600087803b1580156200041357600080fd5b505af115801562000428573d6000803e3d6000fd5b50505050836001600160a01b0316336001600160a01b03167f9d71c7fbe64e7a5353edf28b4529ed9c37fa5fd4727032b903a61e5a02696e9485876001600160a01b031663624aa0fd6040518163ffffffff1660e01b8152600401602060405180830381865afa158015620004a1573d6000803e3d6000fd5b505050506040513d601f19601f82011682018060405250810190620004c79190620012f7565b604080519283526001600160a01b039091166020830152429082015260600160405180910390a350505050565b6001600160a01b0381166000908152600460209081526040918290208054835181840281018401909452808452606093928301828280156200056057602002820191906000526020600020905b81546001600160a01b0316815260019091019060200180831162000541575b50505050509050919050565b600030338a8a8a8a8a8a8a8a604051620005869062001060565b6001600160a01b039a8b168152988a1660208a015296891660408901529488166060880152928716608087015290861660a086015290941660c084015260e083019390935261010082019290925262ffffff90911661012082015261014001604051809103906000f08015801562000602573d6000803e3d6000fd5b503360009081526004602090815260408083208054600181810183559185528385200180546001600160a01b0387166001600160a01b03199182168117909255825480840184557fb10e2d527612073b26eecdfd717e6a320cf44b4afac2b0732d9fcbe2b7fa0cf60180549091168217905584526003909252909120805460ff191682179055805491925062000698916200135c565b6001600160a01b038216600081815260026020908152604091829020939093558051918252429282019290925233917fac4ce915ef22753b636e57aac5ae5fdd9d13d782ae5bf6dbcda15e29f95386c1910160405180910390a2505050505050505050565b6000808080620007108587018762001378565b93509350935093508215620009f4576000846001600160a01b031663c3736fe66040518163ffffffff1660e01b8152600401602060405180830381865afa15801562000760573d6000803e3d6000fd5b505050506040513d601f19601f82011682018060405250810190620007869190620013d0565b6040516353e6ce7760e11b8152600481018290529091506001600160a01b0386169063a7cd9cee90602401600060405180830381600087803b158015620007cc57600080fd5b505af1158015620007e1573d6000803e3d6000fd5b50505050620007f08562000e44565b846001600160a01b0316630ee2cb106040518163ffffffff1660e01b8152600401602060405180830381865afa1580156200082f573d6000803e3d6000fd5b505050506040513d601f19601f82011682018060405250810190620008559190620012f7565b6001600160a01b0316856001600160a01b03167ffe45b5432fda489a54f62aee430bcf72a5639b3174a0528dc94572338079642683886001600160a01b03166368e6ea756040518163ffffffff1660e01b8152600401602060405180830381865afa158015620008c9573d6000803e3d6000fd5b505050506040513d601f19601f82011682018060405250810190620008ef9190620013d0565b896001600160a01b031663624aa0fd6040518163ffffffff1660e01b8152600401602060405180830381865afa1580156200092e573d6000803e3d6000fd5b505050506040513d601f19601f82011682018060405250810190620009549190620012f7565b8a6001600160a01b0316637bef4f546040518163ffffffff1660e01b8152600401602060405180830381865afa15801562000993573d6000803e3d6000fd5b505050506040513d601f19601f82011682018060405250810190620009b99190620012f7565b6040805194855260208501939093526001600160a01b0391821684840152166060830152426080830152519081900360a00190a35062000b06565b811562000b0657604051632539276f60e21b8152600481018290526001600160a01b038516906394e49dbc90602401600060405180830381600087803b15801562000a3e57600080fd5b505af115801562000a53573d6000803e3d6000fd5b50505050836001600160a01b03167f0bd3cc1c5d7fe612c55d1f11d85563be2fbfe6b40cb0d0361e60b07b996fbeda856001600160a01b031663f9a19e546040518163ffffffff1660e01b8152600401602060405180830381865afa15801562000ac1573d6000803e3d6000fd5b505050506040513d601f19601f8201168201806040525081019062000ae79190620013d0565b6040805191825260208201859052429082015260600160405180910390a25b505050505050565b62000b1862001005565b336001600160a01b0316816001600160a01b0316630ee2cb106040518163ffffffff1660e01b8152600401602060405180830381865afa15801562000b61573d6000803e3d6000fd5b505050506040513d601f19601f8201168201806040525081019062000b879190620012f7565b6001600160a01b03161462000baf5760405163bfcafd3760e01b815260040160405180910390fd5b806001600160a01b0316633ccfd60b6040518163ffffffff1660e01b8152600401600060405180830381600087803b15801562000beb57600080fd5b505af115801562000c00573d6000803e3d6000fd5b5050505062000c0f8162000e44565b62000c1a6001600055565b50565b6000606060005b60015481101562000dd05760008060006001848154811062000c4a5762000c4a620013ea565b9060005260206000200160009054906101000a90046001600160a01b03166001600160a01b031663f0b946846040518163ffffffff1660e01b8152600401606060405180830381865afa15801562000ca6573d6000803e3d6000fd5b505050506040513d601f19601f8201168201806040525081019062000ccc919062001400565b925092509250821562000d49576001848154811062000cef5762000cef620013ea565b60009182526020918290200154604080516001600160a01b03909216928201929092529315158482015291151560608401526080808401919091528151808403909101815260a0909201905260019350915062000dd99050565b811562000db7576001848154811062000d665762000d66620013ea565b60009182526020918290200154604080516001600160a01b03909216928201929092528415159181019190915282151560608201526080810182905260a00160405160208183030381529060405294505b505050808062000dc79062001448565b91505062000c24565b50600081511191505b9250929050565b6001818154811062000df157600080fd5b6000918252602090912001546001600160a01b0316905081565b6004602052816000526040600020818154811062000e2857600080fd5b6000918252602090912001546001600160a01b03169150829050565b6001600160a01b03811662000e925760405162461bcd60e51b815260206004820152600f60248201526e496e76616c6964206164647265737360881b60448201526064015b60405180910390fd5b6001600160a01b03811660009081526003602052604090205460ff1662000ef25760405162461bcd60e51b81526020600482015260136024820152725374726174656779206e6f742061637469766560681b604482015260640162000e89565b6001600160a01b0381166000908152600360209081526040808320805460ff1916905560029091528120546001805491929162000f319082906200135c565b8154811062000f445762000f44620013ea565b600091825260209091200154600180546001600160a01b03909216925082918490811062000f765762000f76620013ea565b600091825260208083209190910180546001600160a01b0319166001600160a01b039485161790559183168152600290915260409020829055600180548062000fc35762000fc362001464565b60008281526020808220830160001990810180546001600160a01b03191690559092019092556001600160a01b03949094168152600290935250506040812055565b600260005403620010595760405162461bcd60e51b815260206004820152601f60248201527f5265656e7472616e637947756172643a207265656e7472616e742063616c6c00604482015260640162000e89565b6002600055565b61110e806200147b83390190565b6001600160a01b038116811462000c1a57600080fd5b6000806000606084860312156200109a57600080fd5b8335620010a7816200106e565b95602085013595506040909401359392505050565b600060208284031215620010cf57600080fd5b8135620010dc816200106e565b9392505050565b6020808252825182820181905260009190848201906040850190845b81811015620011265783516001600160a01b031683529284019291840191600101620010ff565b50909695505050505050565b600080600080600080600080610100898b0312156200115057600080fd5b88356200115d816200106e565b975060208901356200116f816200106e565b9650604089013562001181816200106e565b9550606089013562001193816200106e565b94506080890135620011a5816200106e565b935060a0890135925060c0890135915060e089013562ffffff81168114620011cc57600080fd5b809150509295985092959890939650565b60008060208385031215620011f157600080fd5b823567ffffffffffffffff808211156200120a57600080fd5b818501915085601f8301126200121f57600080fd5b8135818111156200122f57600080fd5b8660208285010111156200124257600080fd5b60209290920196919550909350505050565b821515815260006020604081840152835180604085015260005b818110156200128c578581018301518582016060015282016200126e565b506000606082860101526060601f19601f830116850101925050509392505050565b600060208284031215620012c157600080fd5b5035919050565b60008060408385031215620012dc57600080fd5b8235620012e9816200106e565b946020939093013593505050565b6000602082840312156200130a57600080fd5b8151620010dc816200106e565b801515811462000c1a57600080fd5b6000602082840312156200133957600080fd5b8151620010dc8162001317565b634e487b7160e01b600052601160045260246000fd5b8181038181111562001372576200137262001346565b92915050565b600080600080608085870312156200138f57600080fd5b84356200139c816200106e565b93506020850135620013ae8162001317565b92506040850135620013c08162001317565b9396929550929360600135925050565b600060208284031215620013e357600080fd5b5051919050565b634e487b7160e01b600052603260045260246000fd5b6000806000606084860312156200141657600080fd5b8351620014238162001317565b6020850151909350620014368162001317565b80925050604084015190509250925092565b6000600182016200145d576200145d62001346565b5060010190565b634e487b7160e01b600052603160045260246000fdfe6101006040523480156200001257600080fd5b506040516200110e3803806200110e8339810160408190526200003591620000ed565b600160008190556001600160a01b039a8b16608052988a1660a0528854978a166001600160a01b03199889161790985560028054968a169688169690961790955560038054948916948716949094179093556004805491881691909516179093559190931660c0526009805460e09290925260089390935562ffffff909116620100000264ffffffffff1990911617610100179055620001b5565b80516001600160a01b0381168114620000e857600080fd5b919050565b6000806000806000806000806000806101408b8d0312156200010e57600080fd5b620001198b620000d0565b99506200012960208c01620000d0565b98506200013960408c01620000d0565b97506200014960608c01620000d0565b96506200015960808c01620000d0565b95506200016960a08c01620000d0565b94506200017960c08c01620000d0565b935060e08b015192506101008b015191506101208b015162ffffff81168114620001a257600080fd5b809150509295989b9194979a5092959850565b60805160a05160c05160e051610ec46200024a600039600081816102640152818161090f01528181610a230152610ac701526000818161018001528181610213015281816104af015261098f01526000818161013e0152818161039e01526103ff01526000818161029b015281816103120152818161043c01528181610537015281816107cb01526108430152610ec46000f3fe608060405234801561001057600080fd5b50600436106101375760003560e01c80639a31c009116100b8578063d39ac0cb1161007c578063d39ac0cb14610288578063d500958414610299578063e2bbb158146102bf578063eee2bfa0146102d2578063f0b94684146102da578063f9a19e54146102ff57600080fd5b80639a31c009146102375780639f82e5411461023f578063a7cd9cee14610247578063c3736fe61461025a578063c612a8081461026257600080fd5b8063666468d5116100ff578063666468d5146101cf57806368e6ea75146101e55780637bef4f54146101ed57806394e49dbc146101fe578063983733f01461021157600080fd5b80630ee2cb101461013c5780631966b6081461017b5780633ccfd60b146101a25780634096c91c146101ac578063624aa0fd146101be575b600080fd5b7f00000000000000000000000000000000000000000000000000000000000000005b6040516001600160a01b0390911681526020015b60405180910390f35b61015e7f000000000000000000000000000000000000000000000000000000000000000081565b6101aa610307565b005b6008545b604051908152602001610172565b6001546001600160a01b031661015e565b60095460ff166040519015158152602001610172565b6007546101b0565b6002546001600160a01b031661015e565b6101aa61020c366004610c6f565b610431565b7f000000000000000000000000000000000000000000000000000000000000000061015e565b6101b061047e565b6101aa61052c565b6101aa610255366004610c6f565b610581565b6006546101b0565b7f00000000000000000000000000000000000000000000000000000000000000006101b0565b6003546001600160a01b031661015e565b7f000000000000000000000000000000000000000000000000000000000000000061015e565b6101aa6102cd366004610c88565b6107c0565b6101b061095e565b6102e26109c7565b604080519315158452911515602084015290820152606001610172565b6005546101b0565b336001600160a01b037f000000000000000000000000000000000000000000000000000000000000000016146103585760405162461bcd60e51b815260040161034f90610caa565b60405180910390fd5b60095460009060ff166103c65750600754806103875760405163162908e360e11b815260040160405180910390fd5b60006007556002546103c3906001600160a01b03167f000000000000000000000000000000000000000000000000000000000000000083610b16565b50565b50600654806103e85760405163162908e360e11b815260040160405180910390fd5b6000600655600154610424906001600160a01b03167f000000000000000000000000000000000000000000000000000000000000000083610b16565b6009805460ff1916905550565b336001600160a01b037f000000000000000000000000000000000000000000000000000000000000000016146104795760405162461bcd60e51b815260040161034f90610caa565b600555565b600480546001546040516317f271b760e31b815260009384936001600160a01b039081169363bf938db8936104e5937f00000000000000000000000000000000000000000000000000000000000000009390921691670de0b6b3a764000091889101610ceb565b602060405180830381865afa158015610502573d6000803e3d6000fd5b505050506040513d601f19601f820116820180604052508101906105269190610d2b565b92915050565b336001600160a01b037f000000000000000000000000000000000000000000000000000000000000000016146105745760405162461bcd60e51b815260040161034f90610caa565b6009805461ff0019169055565b610589610c16565b600061059361047e565b600954909150600090610100900460ff16156105d3576103e86105b68385610d5a565b6105c2906103e3610d5a565b6105cc9190610d71565b90506105d7565b5060005b60015460035460405163095ea7b360e01b81526001600160a01b0391821660048201526024810186905291169063095ea7b3906044016020604051808303816000875af115801561062c573d6000803e3d6000fd5b505050506040513d601f19601f820116820180604052508101906106509190610d93565b5082600660008282546106639190610dbc565b909155505060408051610100810182526001546001600160a01b0390811682526002548116602083015260095462010000900462ffffff168284015230606083015242608083015260a0820186905260c08201849052600060e0830152600354925163414bf38960e01b81529192169063414bf389906106e7908490600401610dcf565b6020604051808303816000875af1158015610706573d6000803e3d6000fd5b505050506040513d601f19601f8201168201806040525081019061072a9190610d2b565b506002546040516370a0823160e01b81523060048201526000916001600160a01b0316906370a0823190602401602060405180830381865afa158015610774573d6000803e3d6000fd5b505050506040513d601f19601f820116820180604052508101906107989190610d2b565b905080600760008282546107ac9190610e4c565b90915550506001600055506103c392505050565b336001600160a01b037f000000000000000000000000000000000000000000000000000000000000000016146108085760405162461bcd60e51b815260040161034f90610caa565b600082116108295760405163162908e360e11b815260040160405180910390fd5b6001546040516323b872dd60e01b81526001600160a01b037f0000000000000000000000000000000000000000000000000000000000000000811660048301523060248301526044820185905260009216906323b872dd906064016020604051808303816000875af11580156108a3573d6000803e3d6000fd5b505050506040513d601f19601f820116820180604052508101906108c79190610d93565b9050806108e7576040516312171d8360e31b815260040160405180910390fd5b82600660008282546108f99190610e4c565b909155505060095460ff166109595760646109347f000000000000000000000000000000000000000000000000000000000000000082610dbc565b61093e9084610d5a565b6109489190610d71565b6005556009805460ff191660011790555b505050565b600480546001546040516317f271b760e31b815260009384936001600160a01b039081169363bf938db8936104e5937f00000000000000000000000000000000000000000000000000000000000000009390921691670de0b6b3a76400009161012c9101610ceb565b6000806000806109d561095e565b905060006109e161047e565b9050600080808060646109f587605a610d5a565b6109ff9190610d71565b905060006064610a1088606e610d5a565b610a1a9190610d71565b90506000610a497f00000000000000000000000000000000000000000000000000000000000000006064610dbc565b600554610a57906064610d5a565b610a619190610d71565b9050600060646008546064610a769190610e4c565b610a809084610d5a565b610a8a9190610d71565b9050838810158015610a9c5750828811155b15610b0357600554891015610ab45760019650610b03565b80891115610b0357600195506064610aec7f000000000000000000000000000000000000000000000000000000000000000082610dbc565b610af6908b610d5a565b610b009190610d71565b94505b50949a9399509197509195505050505050565b604080516001600160a01b038481166024830152604480830185905283518084039091018152606490920183526020820180516001600160e01b031663a9059cbb60e01b1790529151600092839290871691610b729190610e5f565b6000604051808303816000865af19150503d8060008114610baf576040519150601f19603f3d011682016040523d82523d6000602084013e610bb4565b606091505b5091509150818015610bde575080511580610bde575080806020019051810190610bde9190610d93565b610c0f5760405162461bcd60e51b815260206004820152600260248201526114d560f21b604482015260640161034f565b5050505050565b600260005403610c685760405162461bcd60e51b815260206004820152601f60248201527f5265656e7472616e637947756172643a207265656e7472616e742063616c6c00604482015260640161034f565b6002600055565b600060208284031215610c8157600080fd5b5035919050565b60008060408385031215610c9b57600080fd5b50508035926020909101359150565b60208082526021908201527f6f6e6c792063616c6c61626c65206279206d616e6167657220636f6e747261636040820152601d60fa1b606082015260800190565b6001600160a01b0394851681529290931660208301526fffffffffffffffffffffffffffffffff16604082015263ffffffff909116606082015260800190565b600060208284031215610d3d57600080fd5b5051919050565b634e487b7160e01b600052601160045260246000fd5b808202811582820484141761052657610526610d44565b600082610d8e57634e487b7160e01b600052601260045260246000fd5b500490565b600060208284031215610da557600080fd5b81518015158114610db557600080fd5b9392505050565b8181038181111561052657610526610d44565b60006101008201905060018060a01b0380845116835280602085015116602084015262ffffff6040850151166040840152806060850151166060840152506080830151608083015260a083015160a083015260c083015160c083015260e0830151610e4560e08401826001600160a01b03169052565b5092915050565b8082018082111561052657610526610d44565b6000825160005b81811015610e805760208186018101518583015201610e66565b50600092019182525091905056fea2646970667358221220c5ecc4292ff6f3121c7b0b65bcfdc7774aaa266a61c7e60e110ef9f4cbe8cda864736f6c63430008140033a2646970667358221220a255e3f1424f53278fa15f88da3f1e02e1dc936efbb6660978b233758b83341464736f6c63430008140033",
  "devdoc": {
    "kind": "dev",
    "methods": {
      "checkUpkeep(bytes)": {
        "details": "Part of the Chainlink automation interface.",
        "params": {
          "": "'checkData' Not used in this implementation."
        },
        "returns": {
          "performData": "Encoded data on what action to perform during upkeep.",
          "upkeepNeeded": "Boolean flag indicating if upkeep is needed."
        }
      },
      "performUpkeep(bytes)": {
        "details": "Part of the Chainlink automation interface.",
        "params": {
          "performData": "Encoded data indicating the actions to perform."
        }
      }
    },
    "version": 1
  },
  "userdoc": {
    "kind": "user",
    "methods": {
      "checkUpkeep(bytes)": {
        "notice": "Checks if upkeep is needed based on TSL conditions.COMPUTED OFF-CHAIN"
      },
      "performUpkeep(bytes)": {
        "notice": "Performs the upkeep of updating the stop loss threshold or triggering a sell."
      }
    },
    "version": 1
  },
  "storageLayout": {
    "storage": [
      {
        "astId": 29,
        "contract": "contracts/TrailMixManager.sol:TrailMixManager",
        "label": "_status",
        "offset": 0,
        "slot": "0",
        "type": "t_uint256"
      },
      {
        "astId": 1227,
        "contract": "contracts/TrailMixManager.sol:TrailMixManager",
        "label": "activeStrategies",
        "offset": 0,
        "slot": "1",
        "type": "t_array(t_address)dyn_storage"
      },
      {
        "astId": 1231,
        "contract": "contracts/TrailMixManager.sol:TrailMixManager",
        "label": "strategyIndex",
        "offset": 0,
        "slot": "2",
        "type": "t_mapping(t_address,t_uint256)"
      },
      {
        "astId": 1235,
        "contract": "contracts/TrailMixManager.sol:TrailMixManager",
        "label": "isActiveStrategy",
        "offset": 0,
        "slot": "3",
        "type": "t_mapping(t_address,t_bool)"
      },
      {
        "astId": 1240,
        "contract": "contracts/TrailMixManager.sol:TrailMixManager",
        "label": "userContracts",
        "offset": 0,
        "slot": "4",
        "type": "t_mapping(t_address,t_array(t_address)dyn_storage)"
      }
    ],
    "types": {
      "t_address": {
        "encoding": "inplace",
        "label": "address",
        "numberOfBytes": "20"
      },
      "t_array(t_address)dyn_storage": {
        "base": "t_address",
        "encoding": "dynamic_array",
        "label": "address[]",
        "numberOfBytes": "32"
      },
      "t_bool": {
        "encoding": "inplace",
        "label": "bool",
        "numberOfBytes": "1"
      },
      "t_mapping(t_address,t_array(t_address)dyn_storage)": {
        "encoding": "mapping",
        "key": "t_address",
        "label": "mapping(address => address[])",
        "numberOfBytes": "32",
        "value": "t_array(t_address)dyn_storage"
      },
      "t_mapping(t_address,t_bool)": {
        "encoding": "mapping",
        "key": "t_address",
        "label": "mapping(address => bool)",
        "numberOfBytes": "32",
        "value": "t_bool"
      },
      "t_mapping(t_address,t_uint256)": {
        "encoding": "mapping",
        "key": "t_address",
        "label": "mapping(address => uint256)",
        "numberOfBytes": "32",
        "value": "t_uint256"
      },
      "t_uint256": {
        "encoding": "inplace",
        "label": "uint256",
        "numberOfBytes": "32"
      }
    }
  }
}