{
  "address": "0xA03EE3F830BAF93270F77959D9B3aD6F84eB57Fb",
  "abi": [
    {
      "inputs": [],
      "name": "NotContractOwner",
      "type": "error"
    },
    {
      "anonymous": false,
      "inputs": [
        {
          "indexed": true,
          "internalType": "address",
          "name": "creator",
          "type": "address"
        },
        {
          "indexed": false,
          "internalType": "address",
          "name": "contractAddress",
          "type": "address"
        },
        {
          "indexed": false,
          "internalType": "uint256",
          "name": "timestamp",
          "type": "uint256"
        }
      ],
      "name": "ContractDeployed",
      "type": "event"
    },
    {
      "anonymous": false,
      "inputs": [
        {
          "indexed": true,
          "internalType": "address",
          "name": "creator",
          "type": "address"
        },
        {
          "indexed": true,
          "internalType": "address",
          "name": "strategy",
          "type": "address"
        },
        {
          "indexed": false,
          "internalType": "uint256",
          "name": "amount",
          "type": "uint256"
        },
        {
          "indexed": false,
          "internalType": "address",
          "name": "token",
          "type": "address"
        },
        {
          "indexed": false,
          "internalType": "uint256",
          "name": "timestamp",
          "type": "uint256"
        }
      ],
      "name": "FundsDeposited",
      "type": "event"
    },
    {
      "anonymous": false,
      "inputs": [
        {
          "indexed": true,
          "internalType": "address",
          "name": "creator",
          "type": "address"
        },
        {
          "indexed": true,
          "internalType": "address",
          "name": "strategy",
          "type": "address"
        },
        {
          "indexed": false,
          "internalType": "uint256",
          "name": "amount",
          "type": "uint256"
        },
        {
          "indexed": false,
          "internalType": "address",
          "name": "token",
          "type": "address"
        },
        {
          "indexed": false,
          "internalType": "uint256",
          "name": "timestamp",
          "type": "uint256"
        }
      ],
      "name": "FundsWithdrawn",
      "type": "event"
    },
    {
      "anonymous": false,
      "inputs": [
        {
          "indexed": true,
          "internalType": "address",
          "name": "strategy",
          "type": "address"
        },
        {
          "indexed": true,
          "internalType": "address",
          "name": "creator",
          "type": "address"
        },
        {
          "indexed": false,
          "internalType": "uint256",
          "name": "amountIn",
          "type": "uint256"
        },
        {
          "indexed": false,
          "internalType": "uint256",
          "name": "amountOut",
          "type": "uint256"
        },
        {
          "indexed": false,
          "internalType": "address",
          "name": "tokenIn",
          "type": "address"
        },
        {
          "indexed": false,
          "internalType": "address",
          "name": "tokenOut",
          "type": "address"
        },
        {
          "indexed": false,
          "internalType": "uint256",
          "name": "timestamp",
          "type": "uint256"
        }
      ],
      "name": "SwapExecuted",
      "type": "event"
    },
    {
      "anonymous": false,
      "inputs": [
        {
          "indexed": true,
          "internalType": "address",
          "name": "strategy",
          "type": "address"
        },
        {
          "indexed": false,
          "internalType": "uint256",
          "name": "oldThreshold",
          "type": "uint256"
        },
        {
          "indexed": false,
          "internalType": "uint256",
          "name": "newThreshold",
          "type": "uint256"
        },
        {
          "indexed": false,
          "internalType": "uint256",
          "name": "timestamp",
          "type": "uint256"
        }
      ],
      "name": "ThresholdUpdated",
      "type": "event"
    },
    {
      "inputs": [
        {
          "internalType": "uint256",
          "name": "",
          "type": "uint256"
        }
      ],
      "name": "activeStrategies",
      "outputs": [
        {
          "internalType": "address",
          "name": "",
          "type": "address"
        }
      ],
      "stateMutability": "view",
      "type": "function"
    },
    {
      "inputs": [
        {
          "internalType": "bytes",
          "name": "",
          "type": "bytes"
        }
      ],
      "name": "checkUpkeep",
      "outputs": [
        {
          "internalType": "bool",
          "name": "upkeepNeeded",
          "type": "bool"
        },
        {
          "internalType": "bytes",
          "name": "performData",
          "type": "bytes"
        }
      ],
      "stateMutability": "view",
      "type": "function"
    },
    {
      "inputs": [
        {
          "internalType": "address",
          "name": "_erc20Token",
          "type": "address"
        },
        {
          "internalType": "address",
          "name": "_stablecoin",
          "type": "address"
        },
        {
          "internalType": "address",
          "name": "_uniswapRouter",
          "type": "address"
        },
        {
          "internalType": "address",
          "name": "_uniswapPool",
          "type": "address"
        },
        {
          "internalType": "address",
          "name": "_uniswapOracle",
          "type": "address"
        },
        {
          "internalType": "uint256",
          "name": "_trailAmount",
          "type": "uint256"
        },
        {
          "internalType": "uint256",
          "name": "_granularity",
          "type": "uint256"
        }
      ],
      "name": "deployTrailMix",
      "outputs": [],
      "stateMutability": "nonpayable",
      "type": "function"
    },
    {
      "inputs": [
        {
          "internalType": "address",
          "name": "_strategy",
          "type": "address"
        },
        {
          "internalType": "uint256",
          "name": "_amount",
          "type": "uint256"
        },
        {
          "internalType": "uint256",
          "name": "_tslThreshold",
          "type": "uint256"
        }
      ],
      "name": "deposit",
      "outputs": [],
      "stateMutability": "nonpayable",
      "type": "function"
    },
    {
      "inputs": [
        {
          "internalType": "address",
          "name": "user",
          "type": "address"
        }
      ],
      "name": "getUserContracts",
      "outputs": [
        {
          "internalType": "address[]",
          "name": "",
          "type": "address[]"
        }
      ],
      "stateMutability": "view",
      "type": "function"
    },
    {
      "inputs": [
        {
          "internalType": "address",
          "name": "",
          "type": "address"
        }
      ],
      "name": "isActiveStrategy",
      "outputs": [
        {
          "internalType": "bool",
          "name": "",
          "type": "bool"
        }
      ],
      "stateMutability": "view",
      "type": "function"
    },
    {
      "inputs": [
        {
          "internalType": "bytes",
          "name": "performData",
          "type": "bytes"
        }
      ],
      "name": "performUpkeep",
      "outputs": [],
      "stateMutability": "nonpayable",
      "type": "function"
    },
    {
      "inputs": [
        {
          "internalType": "address",
          "name": "",
          "type": "address"
        },
        {
          "internalType": "uint256",
          "name": "",
          "type": "uint256"
        }
      ],
      "name": "userContracts",
      "outputs": [
        {
          "internalType": "address",
          "name": "",
          "type": "address"
        }
      ],
      "stateMutability": "view",
      "type": "function"
    },
    {
      "inputs": [
        {
          "internalType": "address",
          "name": "_strategy",
          "type": "address"
        }
      ],
      "name": "withdraw",
      "outputs": [],
      "stateMutability": "nonpayable",
      "type": "function"
    }
  ],
  "transactionHash": "0xbeb9d47f041e46910d4a70020b0ccbed56db75c034d8f48c40402ceb2cd3a689",
  "args": [],
  "numDeployments": 2,
  "solcInputHash": "97672532e4134b64d066e54f57398279",
  "bytecode": "0x608060405234801561001057600080fd5b506001600055612442806100256000396000f3fe60806040523480156200001157600080fd5b50600436106200009f5760003560e01c806351cff8d9116200006e57806351cff8d9146200011a5780636e04ff0d1462000131578063b20b24291462000158578063b789003d1462000188578063d2581503146200019f57600080fd5b80630efe6a8b14620000a45780631b29295214620000bd57806334c925f014620000d45780634585e33b1462000103575b600080fd5b620000bb620000b536600462001074565b620001d6565b005b620000bb620000ce366004620010ac565b620004f4565b620000eb620000e53660046200113a565b62000675565b604051620000fa919062001161565b60405180910390f35b620000bb62000114366004620011b0565b620006ed565b620000bb6200012b3660046200113a565b62000afe565b6200014862000142366004620011b0565b62000c0d565b604051620000fa92919062001227565b6200016f6200016936600462001281565b62000dd0565b6040516001600160a01b039091168152602001620000fa565b6200016f620001993660046200129b565b62000dfb565b620001c5620001b03660046200113a565b60036020526000908152604090205460ff1681565b6040519015158152602001620000fa565b336001600160a01b0316836001600160a01b0316630ee2cb106040518163ffffffff1660e01b8152600401602060405180830381865afa1580156200021f573d6000803e3d6000fd5b505050506040513d601f19601f82011682018060405250810190620002459190620012ca565b6001600160a01b0316146200026d5760405163bfcafd3760e01b815260040160405180910390fd5b6000836001600160a01b031663624aa0fd6040518163ffffffff1660e01b8152600401602060405180830381865afa158015620002ae573d6000803e3d6000fd5b505050506040513d601f19601f82011682018060405250810190620002d49190620012ca565b6040516323b872dd60e01b8152336004820152306024820152604481018590529091506001600160a01b038216906323b872dd906064016020604051808303816000875af11580156200032b573d6000803e3d6000fd5b505050506040513d601f19601f82011682018060405250810190620003519190620012f9565b5060405163095ea7b360e01b81526001600160a01b0385811660048301526024820185905282169063095ea7b3906044016020604051808303816000875af1158015620003a2573d6000803e3d6000fd5b505050506040513d601f19601f82011682018060405250810190620003c89190620012f9565b50604051631c57762b60e31b815260048101849052602481018390526001600160a01b0385169063e2bbb15890604401600060405180830381600087803b1580156200041357600080fd5b505af115801562000428573d6000803e3d6000fd5b50505050836001600160a01b0316336001600160a01b03167f9d71c7fbe64e7a5353edf28b4529ed9c37fa5fd4727032b903a61e5a02696e9485876001600160a01b031663624aa0fd6040518163ffffffff1660e01b8152600401602060405180830381865afa158015620004a1573d6000803e3d6000fd5b505050506040513d601f19601f82011682018060405250810190620004c79190620012ca565b604080519283526001600160a01b039091166020830152429082015260600160405180910390a350505050565b60003033898989898989896040516200050d9062001050565b6001600160a01b03998a1681529789166020890152958816604088015293871660608701529186166080860152851660a085015290931660c083015260e082019290925261010081019190915261012001604051809103906000f0801580156200057b573d6000803e3d6000fd5b503360009081526004602090815260408083208054600181810183559185528385200180546001600160a01b0387166001600160a01b03199182168117909255825480840184557fb10e2d527612073b26eecdfd717e6a320cf44b4afac2b0732d9fcbe2b7fa0cf60180549091168217905584526003909252909120805460ff191682179055805491925062000611916200132f565b6001600160a01b038216600081815260026020908152604091829020939093558051918252429282019290925233917fac4ce915ef22753b636e57aac5ae5fdd9d13d782ae5bf6dbcda15e29f95386c1910160405180910390a25050505050505050565b6001600160a01b038116600090815260046020908152604091829020805483518184028101840190945280845260609392830182828015620006e157602002820191906000526020600020905b81546001600160a01b03168152600190910190602001808311620006c2575b50505050509050919050565b600080808062000700858701876200134b565b93509350935093508215620009e4576000846001600160a01b031663c3736fe66040518163ffffffff1660e01b8152600401602060405180830381865afa15801562000750573d6000803e3d6000fd5b505050506040513d601f19601f82011682018060405250810190620007769190620013a3565b6040516353e6ce7760e11b8152600481018290529091506001600160a01b0386169063a7cd9cee90602401600060405180830381600087803b158015620007bc57600080fd5b505af1158015620007d1573d6000803e3d6000fd5b50505050620007e08562000e34565b846001600160a01b0316630ee2cb106040518163ffffffff1660e01b8152600401602060405180830381865afa1580156200081f573d6000803e3d6000fd5b505050506040513d601f19601f82011682018060405250810190620008459190620012ca565b6001600160a01b0316856001600160a01b03167ffe45b5432fda489a54f62aee430bcf72a5639b3174a0528dc94572338079642683886001600160a01b03166368e6ea756040518163ffffffff1660e01b8152600401602060405180830381865afa158015620008b9573d6000803e3d6000fd5b505050506040513d601f19601f82011682018060405250810190620008df9190620013a3565b896001600160a01b031663624aa0fd6040518163ffffffff1660e01b8152600401602060405180830381865afa1580156200091e573d6000803e3d6000fd5b505050506040513d601f19601f82011682018060405250810190620009449190620012ca565b8a6001600160a01b0316637bef4f546040518163ffffffff1660e01b8152600401602060405180830381865afa15801562000983573d6000803e3d6000fd5b505050506040513d601f19601f82011682018060405250810190620009a99190620012ca565b6040805194855260208501939093526001600160a01b0391821684840152166060830152426080830152519081900360a00190a35062000af6565b811562000af657604051632539276f60e21b8152600481018290526001600160a01b038516906394e49dbc90602401600060405180830381600087803b15801562000a2e57600080fd5b505af115801562000a43573d6000803e3d6000fd5b50505050836001600160a01b03167f0bd3cc1c5d7fe612c55d1f11d85563be2fbfe6b40cb0d0361e60b07b996fbeda856001600160a01b031663f9a19e546040518163ffffffff1660e01b8152600401602060405180830381865afa15801562000ab1573d6000803e3d6000fd5b505050506040513d601f19601f8201168201806040525081019062000ad79190620013a3565b6040805191825260208201859052429082015260600160405180910390a25b505050505050565b62000b0862000ff5565b336001600160a01b0316816001600160a01b0316630ee2cb106040518163ffffffff1660e01b8152600401602060405180830381865afa15801562000b51573d6000803e3d6000fd5b505050506040513d601f19601f8201168201806040525081019062000b779190620012ca565b6001600160a01b03161462000b9f5760405163bfcafd3760e01b815260040160405180910390fd5b806001600160a01b0316633ccfd60b6040518163ffffffff1660e01b8152600401600060405180830381600087803b15801562000bdb57600080fd5b505af115801562000bf0573d6000803e3d6000fd5b5050505062000bff8162000e34565b62000c0a6001600055565b50565b6000606060005b60015481101562000dc05760008060006001848154811062000c3a5762000c3a620013bd565b9060005260206000200160009054906101000a90046001600160a01b03166001600160a01b031663f0b946846040518163ffffffff1660e01b8152600401606060405180830381865afa15801562000c96573d6000803e3d6000fd5b505050506040513d601f19601f8201168201806040525081019062000cbc9190620013d3565b925092509250821562000d39576001848154811062000cdf5762000cdf620013bd565b60009182526020918290200154604080516001600160a01b03909216928201929092529315158482015291151560608401526080808401919091528151808403909101815260a0909201905260019350915062000dc99050565b811562000da7576001848154811062000d565762000d56620013bd565b60009182526020918290200154604080516001600160a01b03909216928201929092528415159181019190915282151560608201526080810182905260a00160405160208183030381529060405294505b505050808062000db7906200141b565b91505062000c14565b50600081511191505b9250929050565b6001818154811062000de157600080fd5b6000918252602090912001546001600160a01b0316905081565b6004602052816000526040600020818154811062000e1857600080fd5b6000918252602090912001546001600160a01b03169150829050565b6001600160a01b03811662000e825760405162461bcd60e51b815260206004820152600f60248201526e496e76616c6964206164647265737360881b60448201526064015b60405180910390fd5b6001600160a01b03811660009081526003602052604090205460ff1662000ee25760405162461bcd60e51b81526020600482015260136024820152725374726174656779206e6f742061637469766560681b604482015260640162000e79565b6001600160a01b0381166000908152600360209081526040808320805460ff1916905560029091528120546001805491929162000f219082906200132f565b8154811062000f345762000f34620013bd565b600091825260209091200154600180546001600160a01b03909216925082918490811062000f665762000f66620013bd565b600091825260208083209190910180546001600160a01b0319166001600160a01b039485161790559183168152600290915260409020829055600180548062000fb35762000fb362001437565b60008281526020808220830160001990810180546001600160a01b03191690559092019092556001600160a01b03949094168152600290935250506040812055565b600260005403620010495760405162461bcd60e51b815260206004820152601f60248201527f5265656e7472616e637947756172643a207265656e7472616e742063616c6c00604482015260640162000e79565b6002600055565b610fbf806200144e83390190565b6001600160a01b038116811462000c0a57600080fd5b6000806000606084860312156200108a57600080fd5b833562001097816200105e565b95602085013595506040909401359392505050565b600080600080600080600060e0888a031215620010c857600080fd5b8735620010d5816200105e565b96506020880135620010e7816200105e565b95506040880135620010f9816200105e565b945060608801356200110b816200105e565b935060808801356200111d816200105e565b9699959850939692959460a0840135945060c09093013592915050565b6000602082840312156200114d57600080fd5b81356200115a816200105e565b9392505050565b6020808252825182820181905260009190848201906040850190845b81811015620011a45783516001600160a01b0316835292840192918401916001016200117d565b50909695505050505050565b60008060208385031215620011c457600080fd5b823567ffffffffffffffff80821115620011dd57600080fd5b818501915085601f830112620011f257600080fd5b8135818111156200120257600080fd5b8660208285010111156200121557600080fd5b60209290920196919550909350505050565b821515815260006020604081840152835180604085015260005b818110156200125f5785810183015185820160600152820162001241565b506000606082860101526060601f19601f830116850101925050509392505050565b6000602082840312156200129457600080fd5b5035919050565b60008060408385031215620012af57600080fd5b8235620012bc816200105e565b946020939093013593505050565b600060208284031215620012dd57600080fd5b81516200115a816200105e565b801515811462000c0a57600080fd5b6000602082840312156200130c57600080fd5b81516200115a81620012ea565b634e487b7160e01b600052601160045260246000fd5b8181038181111562001345576200134562001319565b92915050565b600080600080608085870312156200136257600080fd5b84356200136f816200105e565b935060208501356200138181620012ea565b925060408501356200139381620012ea565b9396929550929360600135925050565b600060208284031215620013b657600080fd5b5051919050565b634e487b7160e01b600052603260045260246000fd5b600080600060608486031215620013e957600080fd5b8351620013f681620012ea565b60208501519093506200140981620012ea565b80925050604084015190509250925092565b60006001820162001430576200143062001319565b5060010190565b634e487b7160e01b600052603160045260246000fdfe6101006040523480156200001257600080fd5b5060405162000fbf38038062000fbf8339810160408190526200003591620000d8565b600160008190556001600160a01b03998a1660805297891660a05287549689166001600160a01b03199788161790975560028054958916958716959095179094556003805493881693861693909317909255600480549287169290941691909117909255921660c0526009805460e09390935261ffff1990921690915560085562000181565b80516001600160a01b0381168114620000d357600080fd5b919050565b60008060008060008060008060006101208a8c031215620000f857600080fd5b620001038a620000bb565b98506200011360208b01620000bb565b97506200012360408b01620000bb565b96506200013360608b01620000bb565b95506200014360808b01620000bb565b94506200015360a08b01620000bb565b93506200016360c08b01620000bb565b925060e08a015191506101008a015190509295985092959850929598565b60805160a05160c05160e051610db06200020f60003960008181610259015281816109000152818161096901526109f801526000818161017501528181610210015261043c0152600081816101330152818161038b01526103ec015260008181610290015281816102ff015281816104e401528181610531015281816107bc01526108340152610db06000f3fe608060405234801561001057600080fd5b506004361061012c5760003560e01c8063983733f0116100ad578063d39ac0cb11610071578063d39ac0cb1461027d578063d50095841461028e578063e2bbb158146102b4578063f0b94684146102c7578063f9a19e54146102ec57600080fd5b8063983733f01461020e5780639f82e54114610234578063a7cd9cee1461023c578063c3736fe61461024f578063c612a8081461025757600080fd5b8063666468d5116100f4578063666468d5146101c457806368e6ea75146101da5780637bef4f54146101e25780638e15f473146101f357806394e49dbc146101fb57600080fd5b80630ee2cb10146101315780631966b608146101705780633ccfd60b146101975780634096c91c146101a1578063624aa0fd146101b3575b600080fd5b7f00000000000000000000000000000000000000000000000000000000000000005b6040516001600160a01b0390911681526020015b60405180910390f35b6101537f000000000000000000000000000000000000000000000000000000000000000081565b61019f6102f4565b005b6008545b604051908152602001610167565b6001546001600160a01b0316610153565b60095460ff166040519015158152602001610167565b6007546101a5565b6002546001600160a01b0316610153565b6101a561041e565b61019f610209366004610b9b565b6104d9565b7f0000000000000000000000000000000000000000000000000000000000000000610153565b61019f610526565b61019f61024a366004610b9b565b61057f565b6006546101a5565b7f00000000000000000000000000000000000000000000000000000000000000006101a5565b6003546001600160a01b0316610153565b7f0000000000000000000000000000000000000000000000000000000000000000610153565b61019f6102c2366004610bb4565b6107b1565b6102cf61094f565b604080519315158452911515602084015290820152606001610167565b6005546101a5565b336001600160a01b037f000000000000000000000000000000000000000000000000000000000000000016146103455760405162461bcd60e51b815260040161033c90610bd6565b60405180910390fd5b60095460009060ff166103b35750600754806103745760405163162908e360e11b815260040160405180910390fd5b60006007556002546103b0906001600160a01b03167f000000000000000000000000000000000000000000000000000000000000000083610a42565b50565b50600654806103d55760405163162908e360e11b815260040160405180910390fd5b6000600655600154610411906001600160a01b03167f000000000000000000000000000000000000000000000000000000000000000083610a42565b6009805460ff1916905550565b600480546001546040516317f271b760e31b81526001600160a01b037f00000000000000000000000000000000000000000000000000000000000000008116948201949094529083166024820152670de0b6b3a7640000604482015261012c60648201526000928392169063bf938db890608401602060405180830381865afa1580156104af573d6000803e3d6000fd5b505050506040513d601f19601f820116820180604052508101906104d39190610c17565b92915050565b336001600160a01b037f000000000000000000000000000000000000000000000000000000000000000016146105215760405162461bcd60e51b815260040161033c90610bd6565b600555565b336001600160a01b037f0000000000000000000000000000000000000000000000000000000000000000161461056e5760405162461bcd60e51b815260040161033c90610bd6565b6009805461ff001916610100179055565b610587610b42565b600061059161041e565b600954909150600090610100900460ff16156105cf5760646105b38385610c46565b6105be906062610c46565b6105c89190610c5d565b90506105d3565b5060005b60015460035460405163095ea7b360e01b81526001600160a01b0391821660048201526024810186905291169063095ea7b3906044016020604051808303816000875af1158015610628573d6000803e3d6000fd5b505050506040513d601f19601f8201168201806040525081019061064c9190610c7f565b50826006600082825461065f9190610ca8565b909155505060408051610100810182526001546001600160a01b03908116825260025481166020830152610bb88284015230606083015242608083015260a0820186905260c08201849052600060e0830152600354925163414bf38960e01b81529192169063414bf389906106d8908490600401610cbb565b6020604051808303816000875af11580156106f7573d6000803e3d6000fd5b505050506040513d601f19601f8201168201806040525081019061071b9190610c17565b506002546040516370a0823160e01b81523060048201526000916001600160a01b0316906370a0823190602401602060405180830381865afa158015610765573d6000803e3d6000fd5b505050506040513d601f19601f820116820180604052508101906107899190610c17565b9050806007600082825461079d9190610d38565b90915550506001600055506103b092505050565b336001600160a01b037f000000000000000000000000000000000000000000000000000000000000000016146107f95760405162461bcd60e51b815260040161033c90610bd6565b6000821161081a5760405163162908e360e11b815260040160405180910390fd5b6001546040516323b872dd60e01b81526001600160a01b037f0000000000000000000000000000000000000000000000000000000000000000811660048301523060248301526044820185905260009216906323b872dd906064016020604051808303816000875af1158015610894573d6000803e3d6000fd5b505050506040513d601f19601f820116820180604052508101906108b89190610c7f565b9050806108d8576040516312171d8360e31b815260040160405180910390fd5b82600660008282546108ea9190610d38565b909155505060095460ff1661094a5760646109257f000000000000000000000000000000000000000000000000000000000000000082610ca8565b61092f9084610c46565b6109399190610c5d565b6005556009805460ff191660011790555b505050565b60008060008061095d61041e565b9050600080808061098f7f00000000000000000000000000000000000000000000000000000000000000006064610ca8565b60055461099d906064610c46565b6109a79190610c5d565b90506000606460085460646109bc9190610d38565b6109c69084610c46565b6109d09190610c5d565b90506005548610156109e55760019450610a34565b80861115610a3457600193506064610a1d7f000000000000000000000000000000000000000000000000000000000000000082610ca8565b610a279088610c46565b610a319190610c5d565b92505b509297919650945092505050565b604080516001600160a01b038481166024830152604480830185905283518084039091018152606490920183526020820180516001600160e01b031663a9059cbb60e01b1790529151600092839290871691610a9e9190610d4b565b6000604051808303816000865af19150503d8060008114610adb576040519150601f19603f3d011682016040523d82523d6000602084013e610ae0565b606091505b5091509150818015610b0a575080511580610b0a575080806020019051810190610b0a9190610c7f565b610b3b5760405162461bcd60e51b815260206004820152600260248201526114d560f21b604482015260640161033c565b5050505050565b600260005403610b945760405162461bcd60e51b815260206004820152601f60248201527f5265656e7472616e637947756172643a207265656e7472616e742063616c6c00604482015260640161033c565b6002600055565b600060208284031215610bad57600080fd5b5035919050565b60008060408385031215610bc757600080fd5b50508035926020909101359150565b60208082526021908201527f6f6e6c792063616c6c61626c65206279206d616e6167657220636f6e747261636040820152601d60fa1b606082015260800190565b600060208284031215610c2957600080fd5b5051919050565b634e487b7160e01b600052601160045260246000fd5b80820281158282048414176104d3576104d3610c30565b600082610c7a57634e487b7160e01b600052601260045260246000fd5b500490565b600060208284031215610c9157600080fd5b81518015158114610ca157600080fd5b9392505050565b818103818111156104d3576104d3610c30565b60006101008201905060018060a01b0380845116835280602085015116602084015262ffffff6040850151166040840152806060850151166060840152506080830151608083015260a083015160a083015260c083015160c083015260e0830151610d3160e08401826001600160a01b03169052565b5092915050565b808201808211156104d3576104d3610c30565b6000825160005b81811015610d6c5760208186018101518583015201610d52565b50600092019182525091905056fea264697066735822122056568bb520699413871514865ebed1954e6341d534b6bc155e5bd5aa1e24e8c764736f6c63430008140033a26469706673582212202bebc2036285eb23d81cefcb9e8a98c5fd9bfe70f9d54285de786d97e360994264736f6c63430008140033",
  "devdoc": {
    "kind": "dev",
    "methods": {
      "checkUpkeep(bytes)": {
        "details": "Part of the Chainlink automation interface.",
        "params": {
          "": "'checkData' Not used in this implementation."
        },
        "returns": {
          "performData": "Encoded data on what action to perform during upkeep.",
          "upkeepNeeded": "Boolean flag indicating if upkeep is needed."
        }
      },
      "performUpkeep(bytes)": {
        "details": "Part of the Chainlink automation interface.",
        "params": {
          "performData": "Encoded data indicating the actions to perform."
        }
      }
    },
    "version": 1
  },
  "userdoc": {
    "kind": "user",
    "methods": {
      "checkUpkeep(bytes)": {
        "notice": "Checks if upkeep is needed based on TSL conditions.COMPUTED OFF-CHAIN"
      },
      "performUpkeep(bytes)": {
        "notice": "Performs the upkeep of updating the stop loss threshold or triggering a sell."
      }
    },
    "version": 1
  },
  "storageLayout": {
    "storage": [
      {
        "astId": 29,
        "contract": "contracts/TrailMixManager.sol:TrailMixManager",
        "label": "_status",
        "offset": 0,
        "slot": "0",
        "type": "t_uint256"
      },
      {
        "astId": 1181,
        "contract": "contracts/TrailMixManager.sol:TrailMixManager",
        "label": "activeStrategies",
        "offset": 0,
        "slot": "1",
        "type": "t_array(t_address)dyn_storage"
      },
      {
        "astId": 1185,
        "contract": "contracts/TrailMixManager.sol:TrailMixManager",
        "label": "strategyIndex",
        "offset": 0,
        "slot": "2",
        "type": "t_mapping(t_address,t_uint256)"
      },
      {
        "astId": 1189,
        "contract": "contracts/TrailMixManager.sol:TrailMixManager",
        "label": "isActiveStrategy",
        "offset": 0,
        "slot": "3",
        "type": "t_mapping(t_address,t_bool)"
      },
      {
        "astId": 1194,
        "contract": "contracts/TrailMixManager.sol:TrailMixManager",
        "label": "userContracts",
        "offset": 0,
        "slot": "4",
        "type": "t_mapping(t_address,t_array(t_address)dyn_storage)"
      }
    ],
    "types": {
      "t_address": {
        "encoding": "inplace",
        "label": "address",
        "numberOfBytes": "20"
      },
      "t_array(t_address)dyn_storage": {
        "base": "t_address",
        "encoding": "dynamic_array",
        "label": "address[]",
        "numberOfBytes": "32"
      },
      "t_bool": {
        "encoding": "inplace",
        "label": "bool",
        "numberOfBytes": "1"
      },
      "t_mapping(t_address,t_array(t_address)dyn_storage)": {
        "encoding": "mapping",
        "key": "t_address",
        "label": "mapping(address => address[])",
        "numberOfBytes": "32",
        "value": "t_array(t_address)dyn_storage"
      },
      "t_mapping(t_address,t_bool)": {
        "encoding": "mapping",
        "key": "t_address",
        "label": "mapping(address => bool)",
        "numberOfBytes": "32",
        "value": "t_bool"
      },
      "t_mapping(t_address,t_uint256)": {
        "encoding": "mapping",
        "key": "t_address",
        "label": "mapping(address => uint256)",
        "numberOfBytes": "32",
        "value": "t_uint256"
      },
      "t_uint256": {
        "encoding": "inplace",
        "label": "uint256",
        "numberOfBytes": "32"
      }
    }
  }
}