{
  "address": "0x9802504eC6EDBf69F805BA3d600d2D5e00A9ccF0",
  "abi": [
    {
      "inputs": [],
      "name": "NotContractOwner",
      "type": "error"
    },
    {
      "anonymous": false,
      "inputs": [
        {
          "indexed": true,
          "internalType": "address",
          "name": "creator",
          "type": "address"
        },
        {
          "indexed": false,
          "internalType": "address",
          "name": "contractAddress",
          "type": "address"
        },
        {
          "indexed": false,
          "internalType": "uint256",
          "name": "timestamp",
          "type": "uint256"
        }
      ],
      "name": "ContractDeployed",
      "type": "event"
    },
    {
      "anonymous": false,
      "inputs": [
        {
          "indexed": true,
          "internalType": "address",
          "name": "creator",
          "type": "address"
        },
        {
          "indexed": true,
          "internalType": "address",
          "name": "strategy",
          "type": "address"
        },
        {
          "indexed": false,
          "internalType": "uint256",
          "name": "amount",
          "type": "uint256"
        },
        {
          "indexed": false,
          "internalType": "address",
          "name": "token",
          "type": "address"
        },
        {
          "indexed": false,
          "internalType": "uint256",
          "name": "timestamp",
          "type": "uint256"
        }
      ],
      "name": "FundsDeposited",
      "type": "event"
    },
    {
      "anonymous": false,
      "inputs": [
        {
          "indexed": true,
          "internalType": "address",
          "name": "creator",
          "type": "address"
        },
        {
          "indexed": true,
          "internalType": "address",
          "name": "strategy",
          "type": "address"
        },
        {
          "indexed": false,
          "internalType": "uint256",
          "name": "amount",
          "type": "uint256"
        },
        {
          "indexed": false,
          "internalType": "address",
          "name": "token",
          "type": "address"
        },
        {
          "indexed": false,
          "internalType": "uint256",
          "name": "timestamp",
          "type": "uint256"
        }
      ],
      "name": "FundsWithdrawn",
      "type": "event"
    },
    {
      "anonymous": false,
      "inputs": [
        {
          "indexed": true,
          "internalType": "address",
          "name": "strategy",
          "type": "address"
        },
        {
          "indexed": true,
          "internalType": "address",
          "name": "creator",
          "type": "address"
        },
        {
          "indexed": false,
          "internalType": "uint256",
          "name": "amountIn",
          "type": "uint256"
        },
        {
          "indexed": false,
          "internalType": "uint256",
          "name": "amountOut",
          "type": "uint256"
        },
        {
          "indexed": false,
          "internalType": "address",
          "name": "tokenIn",
          "type": "address"
        },
        {
          "indexed": false,
          "internalType": "address",
          "name": "tokenOut",
          "type": "address"
        },
        {
          "indexed": false,
          "internalType": "uint256",
          "name": "timestamp",
          "type": "uint256"
        }
      ],
      "name": "SwapExecuted",
      "type": "event"
    },
    {
      "anonymous": false,
      "inputs": [
        {
          "indexed": true,
          "internalType": "address",
          "name": "strategy",
          "type": "address"
        },
        {
          "indexed": false,
          "internalType": "uint256",
          "name": "oldThreshold",
          "type": "uint256"
        },
        {
          "indexed": false,
          "internalType": "uint256",
          "name": "newThreshold",
          "type": "uint256"
        },
        {
          "indexed": false,
          "internalType": "uint256",
          "name": "timestamp",
          "type": "uint256"
        }
      ],
      "name": "ThresholdUpdated",
      "type": "event"
    },
    {
      "inputs": [
        {
          "internalType": "uint256",
          "name": "",
          "type": "uint256"
        }
      ],
      "name": "activeStrategies",
      "outputs": [
        {
          "internalType": "address",
          "name": "",
          "type": "address"
        }
      ],
      "stateMutability": "view",
      "type": "function"
    },
    {
      "inputs": [
        {
          "internalType": "bytes",
          "name": "",
          "type": "bytes"
        }
      ],
      "name": "checkUpkeep",
      "outputs": [
        {
          "internalType": "bool",
          "name": "upkeepNeeded",
          "type": "bool"
        },
        {
          "internalType": "bytes",
          "name": "performData",
          "type": "bytes"
        }
      ],
      "stateMutability": "view",
      "type": "function"
    },
    {
      "inputs": [
        {
          "internalType": "address",
          "name": "_erc20Token",
          "type": "address"
        },
        {
          "internalType": "address",
          "name": "_stablecoin",
          "type": "address"
        },
        {
          "internalType": "address",
          "name": "_uniswapRouter",
          "type": "address"
        },
        {
          "internalType": "address",
          "name": "_uniswapPool",
          "type": "address"
        },
        {
          "internalType": "address",
          "name": "_uniswapOracle",
          "type": "address"
        },
        {
          "internalType": "uint256",
          "name": "_trailAmount",
          "type": "uint256"
        },
        {
          "internalType": "uint256",
          "name": "_granularity",
          "type": "uint256"
        },
        {
          "internalType": "uint24",
          "name": "_poolFee",
          "type": "uint24"
        }
      ],
      "name": "deployTrailMix",
      "outputs": [],
      "stateMutability": "nonpayable",
      "type": "function"
    },
    {
      "inputs": [
        {
          "internalType": "address",
          "name": "_strategy",
          "type": "address"
        },
        {
          "internalType": "uint256",
          "name": "_amount",
          "type": "uint256"
        },
        {
          "internalType": "uint256",
          "name": "_tslThreshold",
          "type": "uint256"
        }
      ],
      "name": "deposit",
      "outputs": [],
      "stateMutability": "nonpayable",
      "type": "function"
    },
    {
      "inputs": [
        {
          "internalType": "address",
          "name": "user",
          "type": "address"
        }
      ],
      "name": "getUserContracts",
      "outputs": [
        {
          "internalType": "address[]",
          "name": "",
          "type": "address[]"
        }
      ],
      "stateMutability": "view",
      "type": "function"
    },
    {
      "inputs": [
        {
          "internalType": "address",
          "name": "",
          "type": "address"
        }
      ],
      "name": "isActiveStrategy",
      "outputs": [
        {
          "internalType": "bool",
          "name": "",
          "type": "bool"
        }
      ],
      "stateMutability": "view",
      "type": "function"
    },
    {
      "inputs": [
        {
          "internalType": "bytes",
          "name": "performData",
          "type": "bytes"
        }
      ],
      "name": "performUpkeep",
      "outputs": [],
      "stateMutability": "nonpayable",
      "type": "function"
    },
    {
      "inputs": [
        {
          "internalType": "address",
          "name": "_strategy",
          "type": "address"
        }
      ],
      "name": "toggleSlippageProtection",
      "outputs": [],
      "stateMutability": "nonpayable",
      "type": "function"
    },
    {
      "inputs": [
        {
          "internalType": "address",
          "name": "",
          "type": "address"
        },
        {
          "internalType": "uint256",
          "name": "",
          "type": "uint256"
        }
      ],
      "name": "userContracts",
      "outputs": [
        {
          "internalType": "address",
          "name": "",
          "type": "address"
        }
      ],
      "stateMutability": "view",
      "type": "function"
    },
    {
      "inputs": [
        {
          "internalType": "address",
          "name": "_strategy",
          "type": "address"
        },
        {
          "internalType": "address",
          "name": "_token",
          "type": "address"
        }
      ],
      "name": "withdraw",
      "outputs": [],
      "stateMutability": "nonpayable",
      "type": "function"
    }
  ],
  "transactionHash": "0x2d1845baca91aa79607bd1a4023dd0d0f6924e08eee1050465f8724245ea8ee9",
  "args": [],
  "numDeployments": 6,
  "solcInputHash": "fefb9c59c7f4479566427c4996bbdb6b",
  "bytecode": "0x608060405234801561001057600080fd5b5060016000556127a2806100256000396000f3fe60806040523480156200001157600080fd5b5060043610620000ab5760003560e01c8063b20b2429116200006e578063b20b2429146200014d578063b789003d146200017d578063d25815031462000194578063f3d746f914620001cb578063f940e38514620001e257600080fd5b80630efe6a8b14620000b057806334c925f014620000c9578063442717b214620000f85780634585e33b146200010f5780636e04ff0d1462000126575b600080fd5b620000c7620000c1366004620011a2565b620001f9565b005b620000e0620000da366004620011da565b62000517565b604051620000ef919062001201565b60405180910390f35b620000c76200010936600462001250565b6200058f565b620000c762000120366004620012fb565b62000720565b6200013d62000137366004620012fb565b62000b31565b604051620000ef92919062001372565b620001646200015e366004620013cc565b62000cf4565b6040516001600160a01b039091168152602001620000ef565b620001646200018e366004620013e6565b62000d1f565b620001ba620001a5366004620011da565b60036020526000908152604090205460ff1681565b6040519015158152602001620000ef565b620000c7620001dc366004620011da565b62000d58565b620000c7620001f336600462001415565b62000e47565b336001600160a01b0316836001600160a01b0316630ee2cb106040518163ffffffff1660e01b8152600401602060405180830381865afa15801562000242573d6000803e3d6000fd5b505050506040513d601f19601f8201168201806040525081019062000268919062001453565b6001600160a01b031614620002905760405163bfcafd3760e01b815260040160405180910390fd5b6000836001600160a01b031663624aa0fd6040518163ffffffff1660e01b8152600401602060405180830381865afa158015620002d1573d6000803e3d6000fd5b505050506040513d601f19601f82011682018060405250810190620002f7919062001453565b6040516323b872dd60e01b8152336004820152306024820152604481018590529091506001600160a01b038216906323b872dd906064016020604051808303816000875af11580156200034e573d6000803e3d6000fd5b505050506040513d601f19601f8201168201806040525081019062000374919062001482565b5060405163095ea7b360e01b81526001600160a01b0385811660048301526024820185905282169063095ea7b3906044016020604051808303816000875af1158015620003c5573d6000803e3d6000fd5b505050506040513d601f19601f82011682018060405250810190620003eb919062001482565b50604051631c57762b60e31b815260048101849052602481018390526001600160a01b0385169063e2bbb15890604401600060405180830381600087803b1580156200043657600080fd5b505af11580156200044b573d6000803e3d6000fd5b50505050836001600160a01b0316336001600160a01b03167f9d71c7fbe64e7a5353edf28b4529ed9c37fa5fd4727032b903a61e5a02696e9485876001600160a01b031663624aa0fd6040518163ffffffff1660e01b8152600401602060405180830381865afa158015620004c4573d6000803e3d6000fd5b505050506040513d601f19601f82011682018060405250810190620004ea919062001453565b604080519283526001600160a01b039091166020830152429082015260600160405180910390a350505050565b6001600160a01b0381166000908152600460209081526040918290208054835181840281018401909452808452606093928301828280156200058357602002820191906000526020600020905b81546001600160a01b0316815260019091019060200180831162000564575b50505050509050919050565b600030338a8a8a8a8a8a8a8a604051620005a9906200117b565b6001600160a01b039a8b168152988a1660208a015296891660408901529488166060880152928716608087015290861660a086015290941660c084015260e083019390935261010082019290925262ffffff90911661012082015261014001604051809103906000f08015801562000625573d6000803e3d6000fd5b503360009081526004602090815260408083208054600181810183559185528385200180546001600160a01b0387166001600160a01b03199182168117909255825480840184557fb10e2d527612073b26eecdfd717e6a320cf44b4afac2b0732d9fcbe2b7fa0cf60180549091168217905584526003909252909120805460ff1916821790558054919250620006bb91620014b8565b6001600160a01b038216600081815260026020908152604091829020939093558051918252429282019290925233917fac4ce915ef22753b636e57aac5ae5fdd9d13d782ae5bf6dbcda15e29f95386c1910160405180910390a2505050505050505050565b60008080806200073385870187620014d4565b9350935093509350821562000a17576000846001600160a01b031663c3736fe66040518163ffffffff1660e01b8152600401602060405180830381865afa15801562000783573d6000803e3d6000fd5b505050506040513d601f19601f82011682018060405250810190620007a991906200152c565b6040516353e6ce7760e11b8152600481018290529091506001600160a01b0386169063a7cd9cee90602401600060405180830381600087803b158015620007ef57600080fd5b505af115801562000804573d6000803e3d6000fd5b50505050620008138562000f5f565b846001600160a01b0316630ee2cb106040518163ffffffff1660e01b8152600401602060405180830381865afa15801562000852573d6000803e3d6000fd5b505050506040513d601f19601f8201168201806040525081019062000878919062001453565b6001600160a01b0316856001600160a01b03167ffe45b5432fda489a54f62aee430bcf72a5639b3174a0528dc94572338079642683886001600160a01b03166368e6ea756040518163ffffffff1660e01b8152600401602060405180830381865afa158015620008ec573d6000803e3d6000fd5b505050506040513d601f19601f820116820180604052508101906200091291906200152c565b896001600160a01b031663624aa0fd6040518163ffffffff1660e01b8152600401602060405180830381865afa15801562000951573d6000803e3d6000fd5b505050506040513d601f19601f8201168201806040525081019062000977919062001453565b8a6001600160a01b0316637bef4f546040518163ffffffff1660e01b8152600401602060405180830381865afa158015620009b6573d6000803e3d6000fd5b505050506040513d601f19601f82011682018060405250810190620009dc919062001453565b6040805194855260208501939093526001600160a01b0391821684840152166060830152426080830152519081900360a00190a35062000b29565b811562000b2957604051632539276f60e21b8152600481018290526001600160a01b038516906394e49dbc90602401600060405180830381600087803b15801562000a6157600080fd5b505af115801562000a76573d6000803e3d6000fd5b50505050836001600160a01b03167f0bd3cc1c5d7fe612c55d1f11d85563be2fbfe6b40cb0d0361e60b07b996fbeda856001600160a01b031663f9a19e546040518163ffffffff1660e01b8152600401602060405180830381865afa15801562000ae4573d6000803e3d6000fd5b505050506040513d601f19601f8201168201806040525081019062000b0a91906200152c565b6040805191825260208201859052429082015260600160405180910390a25b505050505050565b6000606060005b60015481101562000ce45760008060006001848154811062000b5e5762000b5e62001546565b9060005260206000200160009054906101000a90046001600160a01b03166001600160a01b031663f0b946846040518163ffffffff1660e01b8152600401606060405180830381865afa15801562000bba573d6000803e3d6000fd5b505050506040513d601f19601f8201168201806040525081019062000be091906200155c565b925092509250821562000c5d576001848154811062000c035762000c0362001546565b60009182526020918290200154604080516001600160a01b03909216928201929092529315158482015291151560608401526080808401919091528151808403909101815260a0909201905260019350915062000ced9050565b811562000ccb576001848154811062000c7a5762000c7a62001546565b60009182526020918290200154604080516001600160a01b03909216928201929092528415159181019190915282151560608201526080810182905260a00160405160208183030381529060405294505b505050808062000cdb90620015a4565b91505062000b38565b50600081511191505b9250929050565b6001818154811062000d0557600080fd5b6000918252602090912001546001600160a01b0316905081565b6004602052816000526040600020818154811062000d3c57600080fd5b6000918252602090912001546001600160a01b03169150829050565b336001600160a01b0316816001600160a01b0316630ee2cb106040518163ffffffff1660e01b8152600401602060405180830381865afa15801562000da1573d6000803e3d6000fd5b505050506040513d601f19601f8201168201806040525081019062000dc7919062001453565b6001600160a01b03161462000def5760405163bfcafd3760e01b815260040160405180910390fd5b806001600160a01b031663def74f916040518163ffffffff1660e01b8152600401600060405180830381600087803b15801562000e2b57600080fd5b505af115801562000e40573d6000803e3d6000fd5b5050505050565b62000e5162001120565b336001600160a01b0316826001600160a01b0316630ee2cb106040518163ffffffff1660e01b8152600401602060405180830381865afa15801562000e9a573d6000803e3d6000fd5b505050506040513d601f19601f8201168201806040525081019062000ec0919062001453565b6001600160a01b03161462000ee85760405163bfcafd3760e01b815260040160405180910390fd5b6040516351cff8d960e01b81526001600160a01b0382811660048301528316906351cff8d990602401600060405180830381600087803b15801562000f2c57600080fd5b505af115801562000f41573d6000803e3d6000fd5b5050505062000f508262000f5f565b62000f5b6001600055565b5050565b6001600160a01b03811662000fad5760405162461bcd60e51b815260206004820152600f60248201526e496e76616c6964206164647265737360881b60448201526064015b60405180910390fd5b6001600160a01b03811660009081526003602052604090205460ff166200100d5760405162461bcd60e51b81526020600482015260136024820152725374726174656779206e6f742061637469766560681b604482015260640162000fa4565b6001600160a01b0381166000908152600360209081526040808320805460ff191690556002909152812054600180549192916200104c908290620014b8565b815481106200105f576200105f62001546565b600091825260209091200154600180546001600160a01b03909216925082918490811062001091576200109162001546565b600091825260208083209190910180546001600160a01b0319166001600160a01b0394851617905591831681526002909152604090208290556001805480620010de57620010de620015c0565b60008281526020808220830160001990810180546001600160a01b03191690559092019092556001600160a01b03949094168152600290935250506040812055565b600260005403620011745760405162461bcd60e51b815260206004820152601f60248201527f5265656e7472616e637947756172643a207265656e7472616e742063616c6c00604482015260640162000fa4565b6002600055565b61119680620015d783390190565b6001600160a01b03811681146200119f57600080fd5b50565b600080600060608486031215620011b857600080fd5b8335620011c58162001189565b95602085013595506040909401359392505050565b600060208284031215620011ed57600080fd5b8135620011fa8162001189565b9392505050565b6020808252825182820181905260009190848201906040850190845b81811015620012445783516001600160a01b0316835292840192918401916001016200121d565b50909695505050505050565b600080600080600080600080610100898b0312156200126e57600080fd5b88356200127b8162001189565b975060208901356200128d8162001189565b965060408901356200129f8162001189565b95506060890135620012b18162001189565b94506080890135620012c38162001189565b935060a0890135925060c0890135915060e089013562ffffff81168114620012ea57600080fd5b809150509295985092959890939650565b600080602083850312156200130f57600080fd5b823567ffffffffffffffff808211156200132857600080fd5b818501915085601f8301126200133d57600080fd5b8135818111156200134d57600080fd5b8660208285010111156200136057600080fd5b60209290920196919550909350505050565b821515815260006020604081840152835180604085015260005b81811015620013aa578581018301518582016060015282016200138c565b506000606082860101526060601f19601f830116850101925050509392505050565b600060208284031215620013df57600080fd5b5035919050565b60008060408385031215620013fa57600080fd5b8235620014078162001189565b946020939093013593505050565b600080604083850312156200142957600080fd5b8235620014368162001189565b91506020830135620014488162001189565b809150509250929050565b6000602082840312156200146657600080fd5b8151620011fa8162001189565b80151581146200119f57600080fd5b6000602082840312156200149557600080fd5b8151620011fa8162001473565b634e487b7160e01b600052601160045260246000fd5b81810381811115620014ce57620014ce620014a2565b92915050565b60008060008060808587031215620014eb57600080fd5b8435620014f88162001189565b935060208501356200150a8162001473565b925060408501356200151c8162001473565b9396929550929360600135925050565b6000602082840312156200153f57600080fd5b5051919050565b634e487b7160e01b600052603260045260246000fd5b6000806000606084860312156200157257600080fd5b83516200157f8162001473565b6020850151909350620015928162001473565b80925050604084015190509250925092565b600060018201620015b957620015b9620014a2565b5060010190565b634e487b7160e01b600052603160045260246000fdfe6101006040523480156200001257600080fd5b5060405162001196380380620011968339810160408190526200003591620000ed565b600160008190556001600160a01b039a8b16608052988a1660a0528854978a166001600160a01b03199889161790985560028054968a169688169690961790955560038054948916948716949094179093556004805491881691909516179093559190931660c0526009805460e09290925260089390935562ffffff909116620100000264ffffffffff1990911617610100179055620001b5565b80516001600160a01b0381168114620000e857600080fd5b919050565b6000806000806000806000806000806101408b8d0312156200010e57600080fd5b620001198b620000d0565b99506200012960208c01620000d0565b98506200013960408c01620000d0565b97506200014960608c01620000d0565b96506200015960808c01620000d0565b95506200016960a08c01620000d0565b94506200017960c08c01620000d0565b935060e08b015192506101008b015191506101208b015162ffffff81168114620001a257600080fd5b809150509295989b9194979a5092959850565b60805160a05160c05160e051610f4c6200024a600039600081816102670152818161096e01528181610a820152610b260152600081816101800152818161021e015281816104f401526109ee01526000818161013e015281816103b5015261043701526000818161029e0152818161031d01528181610480015281816107c50152818161082a01526108a20152610f4c6000f3fe608060405234801561001057600080fd5b50600436106101375760003560e01c80639a31c009116100b8578063d50095841161007c578063d50095841461029c578063def74f91146102c2578063e2bbb158146102ca578063eee2bfa0146102dd578063f0b94684146102e5578063f9a19e541461030a57600080fd5b80639a31c00914610242578063a7cd9cee1461024a578063c3736fe61461025d578063c612a80814610265578063d39ac0cb1461028b57600080fd5b8063666468d5116100ff578063666468d5146101da57806368e6ea75146101f05780637bef4f54146101f857806394e49dbc14610209578063983733f01461021c57600080fd5b80630ee2cb101461013c5780631966b6081461017b5780634096c91c146101a257806351cff8d9146101b4578063624aa0fd146101c9575b600080fd5b7f00000000000000000000000000000000000000000000000000000000000000005b6040516001600160a01b0390911681526020015b60405180910390f35b61015e7f000000000000000000000000000000000000000000000000000000000000000081565b6008545b604051908152602001610172565b6101c76101c2366004610cce565b610312565b005b6001546001600160a01b031661015e565b60095460ff166040519015158152602001610172565b6007546101a6565b6002546001600160a01b031661015e565b6101c7610217366004610cfe565b610475565b7f000000000000000000000000000000000000000000000000000000000000000061015e565b6101a66104c2565b6101c7610258366004610cfe565b610571565b6006546101a6565b7f00000000000000000000000000000000000000000000000000000000000000006101a6565b6003546001600160a01b031661015e565b7f000000000000000000000000000000000000000000000000000000000000000061015e565b6101c76107ba565b6101c76102d8366004610d17565b61081f565b6101a66109bd565b6102ed610a26565b604080519315158452911515602084015290820152606001610172565b6005546101a6565b336001600160a01b037f000000000000000000000000000000000000000000000000000000000000000016146103635760405162461bcd60e51b815260040161035a90610d39565b60405180910390fd5b6002546000906001600160a01b03908116908316036103e857506007548061039e5760405163162908e360e11b815260040160405180910390fd5b60006007556002546103da906001600160a01b03167f000000000000000000000000000000000000000000000000000000000000000083610b75565b6009805460ff191690555050565b6001546001600160a01b039081169083160361045c5750600654806104205760405163162908e360e11b815260040160405180910390fd5b60006006556001546103da906001600160a01b03167f000000000000000000000000000000000000000000000000000000000000000083610b75565b60405163c1ab6dc160e01b815260040160405180910390fd5b336001600160a01b037f000000000000000000000000000000000000000000000000000000000000000016146104bd5760405162461bcd60e51b815260040161035a90610d39565b600555565b60048054600180546040516317f271b760e31b815260009485946001600160a01b039081169463bf938db89461052a947f0000000000000000000000000000000000000000000000000000000000000000949190931692670de0b6b3a7640000929101610d7a565b602060405180830381865afa158015610547573d6000803e3d6000fd5b505050506040513d601f19601f8201168201806040525081019061056b9190610dba565b92915050565b610579610c75565b60006105836104c2565b600954909150600090610100900460ff16156105ca57683635c9adc5dea000006105ad8385610de9565b6105b9906103e3610de9565b6105c39190610e00565b90506105ce565b5060005b60015460035460405163095ea7b360e01b81526001600160a01b0391821660048201526024810186905291169063095ea7b3906044016020604051808303816000875af1158015610623573d6000803e3d6000fd5b505050506040513d601f19601f820116820180604052508101906106479190610e22565b50826006600082825461065a9190610e44565b909155505060408051610100810182526001546001600160a01b0390811682526002548116602083015260095462010000900462ffffff168284015230606083015242608083015260a0820186905260c08201849052600060e0830152600354925163414bf38960e01b81529192169063414bf389906106de908490600401610e57565b6020604051808303816000875af11580156106fd573d6000803e3d6000fd5b505050506040513d601f19601f820116820180604052508101906107219190610dba565b506002546040516370a0823160e01b81523060048201526000916001600160a01b0316906370a0823190602401602060405180830381865afa15801561076b573d6000803e3d6000fd5b505050506040513d601f19601f8201168201806040525081019061078f9190610dba565b905080600760008282546107a39190610ed4565b90915550506001600055506107b792505050565b50565b336001600160a01b037f000000000000000000000000000000000000000000000000000000000000000016146108025760405162461bcd60e51b815260040161035a90610d39565b6009805461ff001981166101009182900460ff1615909102179055565b336001600160a01b037f000000000000000000000000000000000000000000000000000000000000000016146108675760405162461bcd60e51b815260040161035a90610d39565b600082116108885760405163162908e360e11b815260040160405180910390fd5b6001546040516323b872dd60e01b81526001600160a01b037f0000000000000000000000000000000000000000000000000000000000000000811660048301523060248301526044820185905260009216906323b872dd906064016020604051808303816000875af1158015610902573d6000803e3d6000fd5b505050506040513d601f19601f820116820180604052508101906109269190610e22565b905080610946576040516312171d8360e31b815260040160405180910390fd5b82600660008282546109589190610ed4565b909155505060095460ff166109b85760646109937f000000000000000000000000000000000000000000000000000000000000000082610e44565b61099d9084610de9565b6109a79190610e00565b6005556009805460ff191660011790555b505050565b600480546001546040516317f271b760e31b815260009384936001600160a01b039081169363bf938db89361052a937f00000000000000000000000000000000000000000000000000000000000000009390921691670de0b6b3a76400009161012c9101610d7a565b600080600080610a346109bd565b90506000610a406104c2565b905060008080806064610a5487605a610de9565b610a5e9190610e00565b905060006064610a6f88606e610de9565b610a799190610e00565b90506000610aa87f00000000000000000000000000000000000000000000000000000000000000006064610e44565b600554610ab6906064610de9565b610ac09190610e00565b9050600060646008546064610ad59190610ed4565b610adf9084610de9565b610ae99190610e00565b9050838810158015610afb5750828811155b15610b6257600554891015610b135760019650610b62565b80891115610b6257600195506064610b4b7f000000000000000000000000000000000000000000000000000000000000000082610e44565b610b55908b610de9565b610b5f9190610e00565b94505b50949a9399509197509195505050505050565b604080516001600160a01b038481166024830152604480830185905283518084039091018152606490920183526020820180516001600160e01b031663a9059cbb60e01b1790529151600092839290871691610bd19190610ee7565b6000604051808303816000865af19150503d8060008114610c0e576040519150601f19603f3d011682016040523d82523d6000602084013e610c13565b606091505b5091509150818015610c3d575080511580610c3d575080806020019051810190610c3d9190610e22565b610c6e5760405162461bcd60e51b815260206004820152600260248201526114d560f21b604482015260640161035a565b5050505050565b600260005403610cc75760405162461bcd60e51b815260206004820152601f60248201527f5265656e7472616e637947756172643a207265656e7472616e742063616c6c00604482015260640161035a565b6002600055565b600060208284031215610ce057600080fd5b81356001600160a01b0381168114610cf757600080fd5b9392505050565b600060208284031215610d1057600080fd5b5035919050565b60008060408385031215610d2a57600080fd5b50508035926020909101359150565b60208082526021908201527f6f6e6c792063616c6c61626c65206279206d616e6167657220636f6e747261636040820152601d60fa1b606082015260800190565b6001600160a01b0394851681529290931660208301526fffffffffffffffffffffffffffffffff16604082015263ffffffff909116606082015260800190565b600060208284031215610dcc57600080fd5b5051919050565b634e487b7160e01b600052601160045260246000fd5b808202811582820484141761056b5761056b610dd3565b600082610e1d57634e487b7160e01b600052601260045260246000fd5b500490565b600060208284031215610e3457600080fd5b81518015158114610cf757600080fd5b8181038181111561056b5761056b610dd3565b60006101008201905060018060a01b0380845116835280602085015116602084015262ffffff6040850151166040840152806060850151166060840152506080830151608083015260a083015160a083015260c083015160c083015260e0830151610ecd60e08401826001600160a01b03169052565b5092915050565b8082018082111561056b5761056b610dd3565b6000825160005b81811015610f085760208186018101518583015201610eee565b50600092019182525091905056fea2646970667358221220042f3a55d357b625a6916c283280a2d881f0fbdba1c1dc0f678c9113f9501b8e64736f6c63430008140033a264697066735822122020761aba0ac91ea05e8a2de24a8f325d0f01ec12b518fef91f5a72f5ed0741b464736f6c63430008140033",
  "devdoc": {
    "kind": "dev",
    "methods": {
      "checkUpkeep(bytes)": {
        "details": "Part of the Chainlink automation interface.",
        "params": {
          "": "'checkData' Not used in this implementation."
        },
        "returns": {
          "performData": "Encoded data on what action to perform during upkeep.",
          "upkeepNeeded": "Boolean flag indicating if upkeep is needed."
        }
      },
      "performUpkeep(bytes)": {
        "details": "Part of the Chainlink automation interface.",
        "params": {
          "performData": "Encoded data indicating the actions to perform."
        }
      }
    },
    "version": 1
  },
  "userdoc": {
    "kind": "user",
    "methods": {
      "checkUpkeep(bytes)": {
        "notice": "Checks if upkeep is needed based on TSL conditions.COMPUTED OFF-CHAIN"
      },
      "performUpkeep(bytes)": {
        "notice": "Performs the upkeep of updating the stop loss threshold or triggering a sell."
      }
    },
    "version": 1
  },
  "storageLayout": {
    "storage": [
      {
        "astId": 29,
        "contract": "contracts/TrailMixManager.sol:TrailMixManager",
        "label": "_status",
        "offset": 0,
        "slot": "0",
        "type": "t_uint256"
      },
      {
        "astId": 1245,
        "contract": "contracts/TrailMixManager.sol:TrailMixManager",
        "label": "activeStrategies",
        "offset": 0,
        "slot": "1",
        "type": "t_array(t_address)dyn_storage"
      },
      {
        "astId": 1249,
        "contract": "contracts/TrailMixManager.sol:TrailMixManager",
        "label": "strategyIndex",
        "offset": 0,
        "slot": "2",
        "type": "t_mapping(t_address,t_uint256)"
      },
      {
        "astId": 1253,
        "contract": "contracts/TrailMixManager.sol:TrailMixManager",
        "label": "isActiveStrategy",
        "offset": 0,
        "slot": "3",
        "type": "t_mapping(t_address,t_bool)"
      },
      {
        "astId": 1258,
        "contract": "contracts/TrailMixManager.sol:TrailMixManager",
        "label": "userContracts",
        "offset": 0,
        "slot": "4",
        "type": "t_mapping(t_address,t_array(t_address)dyn_storage)"
      }
    ],
    "types": {
      "t_address": {
        "encoding": "inplace",
        "label": "address",
        "numberOfBytes": "20"
      },
      "t_array(t_address)dyn_storage": {
        "base": "t_address",
        "encoding": "dynamic_array",
        "label": "address[]",
        "numberOfBytes": "32"
      },
      "t_bool": {
        "encoding": "inplace",
        "label": "bool",
        "numberOfBytes": "1"
      },
      "t_mapping(t_address,t_array(t_address)dyn_storage)": {
        "encoding": "mapping",
        "key": "t_address",
        "label": "mapping(address => address[])",
        "numberOfBytes": "32",
        "value": "t_array(t_address)dyn_storage"
      },
      "t_mapping(t_address,t_bool)": {
        "encoding": "mapping",
        "key": "t_address",
        "label": "mapping(address => bool)",
        "numberOfBytes": "32",
        "value": "t_bool"
      },
      "t_mapping(t_address,t_uint256)": {
        "encoding": "mapping",
        "key": "t_address",
        "label": "mapping(address => uint256)",
        "numberOfBytes": "32",
        "value": "t_uint256"
      },
      "t_uint256": {
        "encoding": "inplace",
        "label": "uint256",
        "numberOfBytes": "32"
      }
    }
  }
}